:020000040800F2
:10000000D804002001010008E51C00082D1B000891
:10001000E11C0008AD030008D51D00080000000029
:10002000000000000000000000000000ED1C0008BF
:10003000B103000800000000E91C0008CD1D000805
:100040001B0100081B0100081B0100081B01000820
:100050001B0100081B0100081B0100081B01000810
:100060001B0100081B0100081B0100081B01000800
:100070001B0100081B0100081B0100081B010008F0
:100080001B0100081B0100081B0100081B010008E0
:100090001B0100081B0100081B0100081B010008D0
:1000A0001B0100081B0100081B0100081B010008C0
:1000B0001B0100081B0100081B0100081B010008B0
:1000C0001B0100081B0100081B0100081B010008A0
:1000D0001B0100081B0100081B0100081B01000890
:1000E0001B0100081B0100081B010008DFF80CD0F1
:1000F00000F0ECF800480047D91D0008D8040020A3
:100100000648804706480047FEE7FEE7FEE7FEE7B1
:10011000FEE7FEE7FEE7FEE7FEE7FEE7D11D00088B
:10012000ED00000880EA010210B502F00043400033
:1001300022D04A001FD0010E01EB1261C0F356001D
:10014000C2F3560240F4000042F40002A0FB022079
:1001500000047F39140400D0401C50EA124001D43E
:100160004000491EC2B20C0604EBD010401C4008EF
:10017000802A02D003E0002010BD20F001000029F9
:1001800000DA0020184310BD30B480EA010202F00A
:10019000004530F0004221F0004013D090B1C30D73
:1001A000D40DC2F31601C0F31600E41A41F40001A5
:1001B00040F400027D34914201D3641C00E0490008
:1001C000002C02DA30BC002070474FF400000023FE
:1001D000914201D3891A034340084FEA4101F7D104
:1001E00051B1914202D14FF0004105E002D24FF0EF
:1001F000010101E06FF0010103EBC450284430BC61
:1002000000F02CB8002801DBC0F10040002901DB20
:10021000C1F10041814201D901207047002070479F
:1002200096230022114600F022B800F0004220F090
:100230000040C10DC0F3160040F400007F2901DA30
:1002400000207047962903DCC1F19601C84001E007
:1002500096398840002AF4D0404270470029A8BF50
:100260007047401C490008BF20F00100704710B4DF
:10027000B0FA80FC00FA0CF050EA010404BF10BC94
:10028000704749B1CCF1200421FA04F411FA0CF1C1
:1002900018BF012121430843A3EB0C01CB1D4FEAFA
:1002A00000614FEA102042BF002010BC704700EBF5
:1002B000C35010440029A4BF10BC7047401C490023
:1002C00008BF20F0010010BC704700001CB50948B1
:1002D0000090094801900546009C06E0E06840F067
:1002E000010394E8070098471034AC42F6D3FFF7B7
:1002F00001FF00006021000880210008B0B582B035
:1003000004460020019021688A68D2074BD1886892
:1003100040F00100886040F20800C2F2000000686E
:100320004DF68361C4F21B31A0FB0101880C0190E2
:100330000198A0B1019801380190019878B1019815
:1003400001380190019850B101980138019001984D
:1003500028B101980138019001980028EAD100F0F5
:1003600039FE21688968C9071CD1054603E000BF32
:100370008068C00716D100F02DFE411B20680329BC
:10038000F6D38168C907F3D1A06A40F01000A062DB
:10039000E06A40F00100E062002084F824000120BF
:1003A00002B0B0BD002002B0B0BD0000FEE700000A
:1003B0007047000070B542F20C060446C4F2020613
:1003C00000F008FE3168C9071CD13068800644BFC0
:1003D000202030603068C00607D43069C00704D1DF
:1003E000306840075CBF002070BD3068C00640F236
:1003F000B000C2F2000021D400213268520725D497
:100400002AE000BFC4B10546601C10D13068C007A7
:10041000DBD03068C0071CBF30685FEAC070D4D042
:100420003068C007F2D1D0E73068C007CDD000F007
:10043000D1FD401BA042F7D9032070BDC16941F036
:100440000201C16110213268520705D5C26941F02D
:10045000040142F00102C2613269D20702D10120D7
:10046000316070BDC26942F00402C261306920F09F
:10047000010030610120316070BD000070B581B0B5
:100480000022009290F82420012A03D1022108467C
:1004900001B070BD4A680123062A02EB820E80F883
:1004A000243007D8D0F800C06FF004030CF13406F4
:1004B0000CE000BFD0F800C00C2A87BF0CF12C065E
:1004C0006FF040030CF130066FF022030EEB0302D5
:1004D0001F23346803FA02F50B6824EA050503FAC2
:1004E00002F22A433260092B03EB43021AD9DCF8EB
:1004F0000C601E3A072589689540AE43914023F071
:1005000001023143102ACCF80C1015D142F20041FF
:10051000C4F201018C4517D0816A41F0200181624B
:1005200001210AE0DCF81030072689689640B343C1
:1005300091401943CCF810100021002280F82420AB
:10054000084601B070BD00BF89680902F4D4DCF828
:100550000810102B41F40001CCF80810ECD140F247
:100560000801C2F2000109684DF68362C4F21B3231
:10057000A1FB0212910C01EB81014900009100994D
:100580000029D9D000990139009100990029D3D0D0
:1005900000990139009100990029CDD000990139C5
:1005A000009100990029C7D0009901390091009964
:1005B00000294FF00001E5D1BFE700000068C06CE2
:1005C00070470000002804BF01207047B0B5044602
:1005D000806A28B121688868C0070CD115E000BF87
:1005E0000020E06284F82400204600F097F821689B
:1005F0008868C00709D0886820F00100886000F092
:10060000E9FC21688A68D20726D1A06AC0063AD4DC
:10061000A06A41F2021290430230A062E069D4E97C
:10062000013240EA030C531EB3FA83F35D0913460B
:10063000B2F5807F18BF2B02207D257B01284CEA74
:1006400045002CD135B3A56A45F02005A562E56AC1
:1006500045F00105E56222E0054602E08868C00732
:10066000D3D000F0B7FC401B21680328F6D388687C
:10067000C007F3D0A06A40F01000A062E06A40F02A
:100680000100E062A06AA06A40F01000A0620120B0
:10069000B0BD00BFA56903EB4533A3F5C0534D685A
:1006A000B2F5807F25F4694543EA05034B608B680A
:1006B0004FF2FD75CFF6E17503EA050343EA000347
:1006C0008B6001D0012A07D122690023CFF6F07395
:1006D00003EB025201E000BF0022CB6A23F4700357
:1006E0001A43CA62896840F6FE62CFF61F72114053
:1006F000814207D10020E062A16A012262F3010178
:10070000A162B0BDA06A40F0100020F00200A0621B
:10071000E06A40F00100E0620120B0BD80B586B023
:10072000014640F60000C4F20100096800F5E052FD
:1007300091424FF00001CDE90411CDE9021101D041
:1007400006B080BD41F21801C4F202010A6842F409
:1007500000720A600A6802F400720192019A0A6843
:1007600042F004020A60096801F004010191019954
:10077000022102910321039102A900F01DFB06B0A2
:1007800080BD00002DE9F04182B000270D460446EF
:10079000019700F01FFC21688A68D20544D4064600
:1007A0004868C00503D4C86A10F4700F46D040F200
:1007B0000800C2F20000076842F292480220C1F22B
:1007C000492800F099FD216844F624130A69B7FB13
:1007D000F0F0C2F292431A4206D1CA6844F62413DA
:1007E000C0F292031A425BD00A6912EA080F07D1DD
:1007F000CA6842F29243C0F249031A4200F0C08034
:100800000A6949F24923C0F224031A424FF0FC025C
:1008100054D1CF681F4208BF5422019B02FB00F74E
:10082000BB4250D3C3E000BFA06A40F02000A062EA
:1008300084F82470012002B0BDE8F08108688007C8
:1008400000F1B580681C00F0A880FDB90868800739
:1008500070D50868800700F1AA800868800769D50C
:100860000868800700F1A3800868800762D50868DF
:10087000800700F19C80086880075BD508688007C6
:10088000E4D594E00868800700F1918000F0A2FBB5
:10089000801B2168A842F5D908688007F2D449E096
:1008A0000A6912EA080F4FF0290207D1CB6842F219
:1008B0009247C0F249073B4208BF1422019B02FB4A
:1008C00000F7BB4273D2681C52D05DBB0198B8429E
:1008D00030D30198013001900198B84267D2019855
:1008E000B84227D30198013001900198B8425ED2F6
:1008F0000198B8421ED30198013001900198B84286
:1009000055D20198B84215D3019801300190019851
:10091000B842DBD34BE000BF019801300190019851
:10092000B84235D200F056FB801BA842F4D901989A
:10093000B842F1D2A06A40F00400A062002084F81E
:100940002400032002B0BDE8F08100BF019801300F
:1009500001900198B8422AD2019801300190019883
:10096000B84224D20198013001900198B8421ED2B9
:100970000198013001900198B842E7D317E000BF19
:100980005422019B02FB00F7BB429CD30FE000BF47
:1009900021680CE00868800709D40868800706D43D
:1009A000086880075CBF08685FEA8070F2D56FF066
:1009B00012000860A06A40F40070A062886800F429
:1009C0006020B0F5602F01D1207B18B1002002B06B
:1009D000BDE8F081A06A20F48070A062A06AC00423
:1009E000F4D4A06A40F00100A062002002B0BDE88B
:1009F000F081000010B5044690F82400012804BFDF
:100A0000022010BD012084F824002046FFF776FC68
:100A100020B1002084F82400012010BD42F2044CD3
:100A20002068A16AC4F2010C40F2013291430CF536
:100A30007F7201F580719042A16229D0A16A21F4F0
:100A40008011A1624168490504D5A16A012363F3BD
:100A50000D31A162A16A0023C9044FF0000144BF17
:100A6000E16A21F00601E1626FF0020184F82430AE
:100A70000160816801F46021B1F5602F1BD19042C3
:100A800014D0816841F4A0018160002010BD00BF36
:100A9000DCF8001011F4702FD0D0A16A41F480115D
:100AA000A162DCF800104905CFD4D3E7DCF80010D0
:100AB00011F4702FE5D0816841F48011816000202D
:100AC00010BD0000B0B5044690F82400012804BF12
:100AD0000220B0BD0121206884F824108168C90774
:100AE00009D0816821F00101816000F073FA21686A
:100AF0008968C9070ED1214651F8280F41F2011229
:100B000020EA0202002042F001020A60002184F87B
:100B10002410B0BD054602E08068C007EBD000F0AD
:100B200059FA411B20680329F6D38168C907F3D01D
:100B3000A06A214640F01000A06251F82C2F01203D
:100B4000E1E70000B0B5044600F044FA054640F283
:100B50000000C2F200000078611C18BF044400BF0E
:100B600000F038FA401BA042FAD3B0BD2DE9F043A3
:100B700081B040F2B005C2F200052A7E012A03D1FD
:100B8000022001B0BDE8F0830446012026682876E3
:100B90004CF250308846FFF70DFC022E1CD1002885
:100BA0004ED1002042F21004E861C4F20204206831
:100BB00040F004002060206840F0400020604CF2CB
:100BC0005030FFF7F7FB216821F00401216000217C
:100BD000297601B0BDE8F08390BB4FF0FF30C8F834
:100BE0000000D4E9027007EB8020874228D242F24D
:100BF0001006C4F202064FF0000900BFC5F81C90B1
:100C0000306840F0020030607760306840F04000AB
:100C100030604CF25030FFF7CDFB316821F002011B
:100C2000316098B9D4E9020107F5806700EB8120B3
:100C30008742E3D300200021297601B0BDE8F0838C
:100C400001200021297601B0BDE8F083C8F80070CA
:100C50000021297601B0BDE8F083000042F21001C6
:100C6000C4F20201086840F0800200200A60704768
:100C70002DE9F04381B040F2B007C2F200071646FA
:100C80003A7E012A04D1022001B0BDE8F08300BF02
:100C90000546012038764CF250300C469946FFF755
:100CA00089FB28B10021397601B0BDE8F08300BF8F
:100CB00042F210080020C4F20208F861D8F80000DF
:100CC00040F00100C8F800004CF250302680FFF7D9
:100CD00071FBD8F80010002821F00101C8F80010BD
:100CE00018BF0046DED1012DDCD00020F861D8F815
:100CF0000000310C40F00100C8F800004CF2503008
:100D00006180FFF757FBD8F80010002821F001019F
:100D1000C8F80010C6D1E81E10F1030F4FF0000014
:100D2000C0D8F861D8F8000040F00100C8F8000011
:100D30004CF25030A4F80490FFF73CFBD8F80010B8
:100D4000002821F00101C8F80010ABD10020F861A3
:100D5000D8F800004FEA194140F00100C8F800003F
:100D60004CF25030E180FFF725FBD8F80010002846
:100D700021F00101C8F8001018BF004600213976A3
:100D800001B0BDE8F083000042F20400C4F20200AA
:100D9000C16809065CBF0020704740F22311C4F20D
:100DA0006751016048F6AB11CCF6EF510160C068A5
:100DB000C0B2C009704700002DE9F04F82B00E6844
:100DC000002E00F0FD8041F20042C4F20102042333
:100DD00040F2004E904208BF03234FF6FF7CC4F25E
:100DE000010E009300240123C1F2100C4FF0000A01
:100DF0004FF000094BE000BF41F20002C4F20102D3
:100E0000009F904208BF022704F00C030F229A4073
:100E10002BEA020207FA03F34FEA9A051A4346F84F
:100E200025204E6840F20C45F202DEF8082054BF3F
:100E300022EA080242EA0802C4F20105CEF80820BC
:100E40002A68B30254BF22EA080242EA08022A6072
:100E5000B303DEF8042054BF22EA080242EA080283
:100E6000F303CEF80420DEF800204FF0010354BF56
:100E700022EA080242EA0802CEF800200E680AF1CF
:100E8000010A36FA0AF204F1040400F0998003FA28
:100E90000AFB16EA0B08F1D04E68664512DC122EEA
:100EA00056D8DFE806F0350B4D4955555555555583
:100EB0005555555555555545510000BFD1F80C9025
:100EC00046E000BF4FF6FF72C1F2210296420FDCEE
:100ED0000022C1F2110296421AD00022C1F212027F
:100EE000964215D00022C1F22102964210D02FE086
:100EF0000022C1F2220296420AD00022C1F231023F
:100F0000964205D00022C1F23202964220D100BFA3
:100F10008A684AB1012A14BFC0F814B0C0F810B0F2
:100F20004FF0080914E000BF4FF0040910E000BFC3
:100F3000CA6802F104090BE04FF0000908E000BFA5
:100F4000CA6802F1080903E0CA6802F10C0900BF8F
:100F500002462646B8F5807F24BF0432203E17683B
:100F60000F25B54027EA050509FA06F63543156051
:100F7000CA79D2067FF582AF41F21803C4F20203A8
:100F80001A68AEF57E7642F001021A601A6802F025
:100F900001020192019A2AF0030256F802B040F6CB
:100FA0000002C4F20102904208D040F60042C4F2AE
:100FB000010290427FF420AF012725E7002723E7B5
:100FC00002B0BDE8F08F0000002A08BF09040161EB
:100FD0007047000040F2D000C2F200000068704785
:100FE000002804BF01207047F0B581B0044690F896
:100FF0003D0028B9002084F83C00204600F0A2F80B
:10100000242084F83D002068016821F0010101607E
:10101000016841F400410160016821F40041016070
:1010200000F046FB636848F2A16CC0F2010C40F688
:101030000011C0F23D0163453CBF48F28041C0F25F
:101040001E01884202D2012001B0F0BD4DF683613D
:10105000C4F21B31A0FB01122168970CD1F804E007
:101060004FF496762EF03F0545EA92454D60774362
:1010700048F638160D6AC0F24106A7FB067625F041
:101080003F07634538BF960C721C3A430A62CA692F
:1010900048F2A0664CF6FF77C0F20106B34222EA9E
:1010A00007020BD801385B00B0FBF3F001306FF39F
:1010B0001F30042898BF04201BE000BFA768013838
:1010C00057B119277B43B0FBF3F001306FF31F30AA
:1010D00070B100F5804007E003EB4303B0FBF3F091
:1010E00001306FF31F3018B100F5004001E000BF80
:1010F00001201043C8610868D4E9072320F0C0002C
:10110000104318430860886848F2FF3204F10C0766
:1011100090438CCF18431043A6698860C86820F0BC
:10112000FF0038433043C860086840F001000860A1
:1011300000202021206484F83D10206384F83E00C4
:1011400001B0F0BD10B586B0016845F20040C4F2B0
:10115000000081424FF00001CDE90411CDE90211F8
:1011600002D006B010BD00BF41F21804C4F2020460
:10117000216800F5384041F008012160216801F044
:10118000080101910199C0210291122103910321CB
:10119000059102A9FFF710FE606840F4001060603E
:1011A000606800F400100190019806B010BD0000C6
:1011B00040F2000040F2D001C2F20000C2F2000191
:1011C00000780A68104408607047000080B542F259
:1011D0000000C4F20200016841F010010160032028
:1011E00000F07AF80F2000F005F800F027F8002052
:1011F00080BD000070B540F20006C2F2000640F269
:1012000008013278C2F200014FF47A730968B3FB27
:10121000F2F20446B1FBF2F1084600F071FC0F2C2B
:101220004FF0010508D838B94FF0FF3021460022B1
:10123000002500F025F87460284670BD82B041F2A8
:101240001800C4F202000168022241F001010160AD
:10125000016801F0010101910199416841F080515B
:101260004160406800F08050009000980420C4F273
:101270000100016862F31A61016002B0704700006A
:1012800010B54EF60C5CCEF2000CDCF80030C3F367
:10129000022E8EF00704042C28BF0424BEF10303A1
:1012A0004FF0FF3E0EFA04F438BF0023A1439940EB
:1012B0000EFA03F39A43114300F00F0200F160436A
:1012C0000901043A03F564436244002848BF02F16F
:1012D0000C03197010BD00004EF60C51CEF2000147
:1012E0000A684FF6FF031A4060F30A2242F080605A
:1012F00040F0FD7008607047012821D002280DD011
:10130000102808D141F20401C4F202010A6851F820
:10131000040CC00134D40020704700BF80B500F039
:10132000DBF941F20401C4F2020109680222C1F3AF
:10133000813102EB4101B0FBF1F0BDE88040704724
:1013400041F20400C4F20200C16940F202320A40D4
:10135000B2F5817F04BF4FF40040704701F4407143
:10136000B1F5407F18D0B1F5007F1CBF0020704759
:10137000006A49F64041800701EAE070704700BF0B
:10138000C2F3834015A3185CD2030DD440F60012BB
:10139000C0F23D02504313E050F8040C4FF22441D8
:1013A000800301EAE07070470A6810A3C2F340426C
:1013B0009A5C41F20023C0F27A03B3FBF2F250438D
:1013C0000968490248BF70474AF6AB214000CAF697
:1013D000AA21A0FB01014808704700BF02030405D1
:1013E000060708090A0B0C0D0E0F10100102000071
:1013F0002DE9F04182B00446007841F21C06C00796
:10140000C4F202064AD030685FEAC00808D43068E7
:1014100040F080503060306800F0805001900198BA
:1014200047F20007C4F200073868C00512D43868D4
:1014300040F480703860FFF7CDFD05463868C00580
:1014400008D4FFF7C7FD401B6428F7D9032002B07A
:10145000BDE8F081706810F4407012D0616801F44A
:10146000407188420DD0706840F24042C4F242227E
:10147000012320F4407113600023C00713607160E2
:1014800026D17068616820F440700843B8F1000FFD
:10149000706003D4306820F080503060206881078D
:1014A00007D556F8181CA26821F44041114346F8AC
:1014B000181CC00607D556F8180CE16820F4800007
:1014C000084346F8180C002002B0BDE8F08100BFC8
:1014D000FFF780FD054641F2883700BF706880073E
:1014E000CFD4FFF777FD401BB8424FF00300F5D98A
:1014F000EAE70000002804BF012070472DE9F0430F
:1015000081B042F20008C4F202080446D8F8000094
:101510000D4600F0070081420CD9D8F8000020F0F9
:1015200007002843C8F80000D8F8000000F00700C2
:10153000A8426CD1206841F204098107C4F2020973
:1015400017D5410705D5D9F8001041F4E061C9F875
:101550000010010705D5D9F8001041F46051C9F811
:101560000010D9F80010A26821F0F0011143C9F869
:101570000010C00742D1D8F8000000F007008542F3
:101580000CD2D8F8000020F007002843C8F800006B
:10159000D8F8000000F00700A84238D120684107C1
:1015A00007D5D9F80010E26821F4E0611143C9F8C9
:1015B0000010000708D5D9F80000216920F4605018
:1015C00040EAC100C9F80000D9F8002002F00C0080
:1015D000082841F20020C0F27A004DD142F25013A7
:1015E000C2F38341C0F60003595CD20338D440F6FD
:1015F0000010C0F23D0048433EE000BF606859F86B
:10160000041C022808D0012826D1890306D4012011
:1016100001B0BDE8F08300BF8901F8D5D9F800100A
:1016200021F003010843C9F80000FFF7D3FC064688
:1016300041F28837D9F80000616800F00C00B0EB87
:10164000810F98D0FFF7C6FC801BB842F2D9032067
:1016500001B0BDE8F08300BF8907D8D5DEE700BF41
:10166000D9F8002042F24E13C2F34042C0F6000304
:101670009A5C4843B0FBF2F0D9F8001042F23612FF
:10168000C1F30311C0F60002515C40F2080220FAD7
:1016900001F140F20400C2F200000068C2F2000250
:1016A0001160FFF7A7FD002001B0BDE8F083000046
:1016B00040F2080041F20401C2F20000C4F202014B
:1016C0000068096842F24612C1F30221C0F6000226
:1016D000515CC8407047000040F2080041F204012C
:1016E000C2F20000C4F202010068096842F2461228
:1016F000C1F3C221C0F60002515CC840704700002F
:10170000002804BF012070472DE9F04182B0044653
:10171000007841F20006C007C4F202060CD07068DF
:1017200000F00C00042840F081803068800303D56D
:101730006068002800F04681207880071BD570681B
:1017400010F00C0F09D0706800F00C00082840F071
:1017500087807068C00300F183803068800703D5FC
:101760002069012840F02E813068616920F0F8007E
:1017700040EAC10030602078000713D42078400789
:101780002CD4E569002D00F01881706800F00C0081
:10179000082840F0A780012D40F00481012002B00C
:1017A000BDE8F081A069002800F084800020C4F228
:1017B00042200121C0F88014FFF70CFC054600BF51
:1017C000706A800700F1B280FFF704FC401B02281A
:1017D000F6D9032002B0BDE8F08100BFF0695FEAEE
:1017E000C00808D4F06940F08050F061F06900F062
:1017F00080500090009847F20007C4F20007386854
:10180000C00549D4386840F480703860FFF7E2FBC7
:10181000054600BF3868C0053ED4FFF7DBFB401B20
:101820006428F7D9032002B0BDE8F081706800F0A9
:101830000C00082803D17068C0033FF576AF6168DB
:101840003068002900F00C81B1F5A02F00F0008174
:10185000B1F5803F40F01A8140F480301CE100BFB8
:101860002069002840F20000C4F2422000F0888085
:1018700001210160FFF7AEFB054600BF306880071D
:101880003FF572AFFFF7A6FB401B0228F6D90320F5
:1018900002B0BDE8F08100BFE168306A002900F0C5
:1018A0009D80052900F09280012940F0AF8040F032
:1018B0000100B1E00020C4F242200021C0F88014F1
:1018C000FFF788FB054600BF706A80077FF556AFBB
:1018D000FFF780FB401B0228F6D9032002B0BDE8C9
:1018E000F08100BF0027C4F2422700203866FFF7CE
:1018F00071FB022D05460DD13068800140F1DE807C
:10190000FFF768FB401B02284FF00300F4D902B038
:10191000BDE8F081306880014FD5FFF75BFB401BCD
:1019200002284FF00300F5D9F1E700BF40F20800AC
:10193000C2F20000006844F6D351C1F26201A0FB7C
:101940000101480A019000BF00BF0198411E002814
:1019500001913FF413AF00BF0198411E002801918F
:101960003FF40CAF00BF0198411E002801913FF4E5
:1019700005AF00BF0198411E00280191E4D1FDE6AA
:1019800000210160FFF726FB054600BF3068800795
:101990007FF5F1AEFFF71EFB401B02284FF003005E
:1019A000F4D9B4E77068216A00F480328A4209D120
:1019B000616A00F47010884204D1002002B0BDE8D2
:1019C000F08100BF012002B0BDE8F08140F00400CA
:1019D0003062306A40F001001EE000BF20F00100DC
:1019E0003062306A20F004003062FFF7F3FA0546F7
:1019F00041F28837306A800720D5FFF7EBFA401BA9
:101A0000B8424FF00300F5D981E700BF20F0010094
:101A10003062306A20F004003062FFF7DBFA0546DE
:101A200041F28837306A800708D4FFF7D3FA401BA9
:101A3000B842F7D9032002B0BDE8F081B8F1000F39
:101A40003FF59FAEF06920F08050F06199E600BF4D
:101A500040F480203060306840F480301CE000BFEB
:101A600020F480303060306820F480203060FFF750
:101A7000B1FA0546306880037FF55EAEFFF7AAFA3B
:101A8000401B64284FF00300F4D940E720F4803075
:101A90003060306820F480203060FFF79BFA054604
:101AA000306880033FF548AEFFF794FA401B642886
:101AB000F6D9032002B0BDE8F08100BF206AB0F57E
:101AC000803F05D17168A26821F400311143716033
:101AD0007168626A21F47411114308437060012037
:101AE0003866FFF777FA0446306880013FF565AF46
:101AF000FFF770FA001B02284FF00300F4D906E745
:101B0000411E0020B0EB116F1CBF012070474EF248
:101B10001002CEF2000251604EF62351CEF20001C7
:101B2000F0230B700721906011607047FEE7000002
:101B3000F0B581B040F25806C2F2000631887F2924
:101B40000BD840F20C05C2F2000529680122CFF241
:101B5000FF7211440831914202D2002001B0F0BD61
:101B60000746FFF711F929683A8801200023FFF79B
:101B70007FF8044628687A88811C01200023FFF73B
:101B800077F804432868BA88011D01200023FFF775
:101B90006FF804432868FA88811D01200023FFF7AD
:101BA00067F8044328683A8900F1080101200023FE
:101BB000FFF75EF8044328687A8900F10A010120E2
:101BC0000023FFF755F82043B0FA80F04FEA501495
:101BD00004D0FFF743F8204601B0F0BD30884FF63F
:101BE00002410130308082B2C0F6000101200023A2
:101BF000FFF73EF828680C302860FFF72FF82046E2
:101C000001B0F0BDB0B586B0FFF7BEF801204FF6C9
:101C100000440590C0F60004002502A801A9049420
:101C20000395CDE90155FEF7A1FF012021464AF6B3
:101C3000AA220023FFF71CF8A11C01200022002388
:101C4000FFF716F8FFF70AF840F25800C2F200005A
:101C500040F20C010580201DC2F20001086006B0B0
:101C6000B0BD0000F0B585B04FF60044C0F60004EA
:101C700020884AF6AA2140F2580640F20C05884214
:101C8000C2F20006C2F2000507D1608804EBC00171
:101C900004318028308029601FD3FFF775F80120B8
:101CA000CDE9034000200290CDE9000001A869467B
:101CB000FEF75CFF012021464AF6AA2200230027F6
:101CC000FEF7D6FFA11C012000220023FEF7D0FF63
:101CD000FEF7C4FF201D3780286005B0F0BD00006E
:101CE000FEE70000FEE700007047000070470000BC
:101CF0000A20FEF727BF000070B540F22805C2F2A7
:101D0000000504462846FEF775FE28466421FEF7C6
:101D100039FD38B140F22800C2F20000FEF7D2FED1
:101D20001AE000BF40F22805C2F200052846FEF77F
:101D300045FC06462846FEF7C5FE3046FEF770FA1B
:101D40000021C4F22011FEF71FFA0021C4F2C821BD
:101D50000546FEF757FA48B341F20004C4F2010405
:101D600020464FF4005100220025FFF72DF94FF4D3
:101D7000FA70FEF7E7FE20464FF400510122FFF70C
:101D800023F96420FEF7DEFE20464FF400510022C6
:101D9000FFF71AF96420FEF7D5FE20464FF40051F4
:101DA0000122FFF711F9284670BD00BF0020C4F2E0
:101DB000C8100021C4F24821002284E82300012534
:101DC000C4F2FA322846E260257470BDFFF7F0B91C
:101DD00070470000FEE7000094B0FFF7F7F9002419
:101DE0000120CDE90F44CDE90D440A900E904FF447
:101DF000E0104FF48031022513900AA80494CDE935
:101E00000244CDE90B14CDE91151FFF779FC28B15B
:101E1000EFF3108072B600BFFEE700BF0F20CDE9E0
:101E200005054FF48060CDE9080405A80221079458
:101E3000FFF760FB20B1EFF3108072B6FEE700BF42
:101E4000022001904FF44040039001A8FFF7D0FA20
:101E500020B1EFF3108072B6FEE700BF41F2180028
:101E6000C4F20200016841F2000A41F02001016061
:101E7000016840F2100401F020010A910A990168FA
:101E8000C4F2010A41F0040101600168C2F20004D9
:101E900001F004010A910A9901684FF4602241F0AF
:101EA0000801016000680AF5A05100F008000A90DE
:101EB0000A98204640F8181F00210125017301757A
:101EC000C261C0E901110561FEF77CFB20B1EFF3AF
:101ED000108072B6FEE700BF06200C9004F11800D7
:101EE0000AA9CDE90A55FEF7C9FA28B1EFF3108027
:101EF00072B600BFFEE700BF40F25C00AAF53C41AD
:101F0000C2F2000048F2A06200234FF48047C0F202
:101F1000010280E80E00C0E90337C0E90533C0E9DB
:101F20000733FFF75DF828B1EFF3108072B600BFFA
:101F3000FEE700BFFFF7DCFEFFF794FEFFF762FE4F
:101F400050464FF400510022FFF73EF8C820FEF73C
:101F5000F9FD50464FF400510122FFF735F8C82033
:101F6000FEF7F0FD50464FF400510022FFF72CF829
:101F7000C820FEF7E7FD50464FF400510122FFF75D
:101F800023F8C820FEF7DEFD50464FF40051002232
:101F9000FFF71AF8C820FEF7D5FD50464FF4005160
:101FA0000122FFF711F84DF2C04B40F20009C0F2D8
:101FB000010BC4F220190DF1280816E050464FF429
:101FC00000510022FFF700F84FF4FA70FEF7BAFD57
:101FD00050464FF400510122FEF7F6FF4FF4FA701D
:101FE000FEF7B0FD6420FEF7ADFDFEF7F3FF2168BC
:101FF0000746401A5845F5D3204640F8047BFFF7C2
:102000007BFE0028DAD044F6D350C1F26200A7FB71
:10201000000188090A90D4E90106D4E9035749462A
:10202000FEF780F8FEF701F9ADF82C00304649467E
:10203000FEF778F8FEF7F9F8ADF82E002846494685
:10204000FEF770F8FEF7F1F8ADF830003846FEF70D
:10205000ECF8ADF832004046FFF76AFD0546504601
:102060004FF400510022FEF7AFFF0DB1642724E0CA
:1020700032203227FEF766FD50464FF40051012210
:10208000FEF7A2FF3220FEF75DFD50464FF40051EF
:102090000022FEF799FF3220FEF754FD50464FF420
:1020A00000510122FEF790FF3220FEF74BFD504613
:1020B0004FF400510022FEF787FF3846FEF742FD3D
:1020C00050464FF400510122FEF77EFF3846FEF7DE
:1020D00039FD50464FF400510022FEF775FF384697
:1020E000FEF730FD50464FF400510122FEF76CFF21
:1020F0003846FEF727FD50464FF400510022FEF708
:1021000063FF3846FEF71EFD50464FF40051012292
:10211000FEF75AFF384663E702E008C8121F08C1FD
:10212000002AFAD170477047002001E001C1121F58
:10213000002AFBD1704700000000000000000102EF
:10214000030406070809000000000102030401025D
:1021500002030405060708090A0B0C0D0E0F1010E8
:102160008021000800000020100000001821000855
:102170009021000810000020C80400002821000859
:10218000010000001000000000127A0000FC0008AE
:04000005080000ED02
:00000001FF
