:020000040800F2
:10000000300B0020B5010008C1290008F9230008C1
:10001000BD290008DD040008F92E000800000000DA
:10002000000000000000000000000000ED2E0008AD
:10003000E104000800000000C5290008F12E0008B6
:10004000CF010008CF010008CF010008CF01000850
:10005000CF010008CF010008CF010008CF01000840
:10006000CF010008CF010008CF010008CF01000830
:10007000CF010008CF010008CF010008CF01000820
:10008000CF010008CF010008CF010008CF01000810
:10009000CF010008CF010008CF010008CF01000800
:1000A000CF010008CF010008CF010008CF010008F0
:1000B000CF010008CF010008CF010008CF010008E0
:1000C000CF010008CF010008CF010008CF010008D0
:1000D000CF010008CF010008CF010008CF010008C0
:1000E000CF010008CF010008CF01000800F002F89E
:1000F00000F050F814A696E8000CB244B344DA4578
:1001000001D100F047F8BAE80F000FA696E83000DA
:10011000A5EB040504EB0607AAEB0704A7F101070A
:100120004FEA15154FEA3414A4F10104AC4201D38F
:1001300000F030F813F0010F18BFFB1A43F0010371
:1001400000F001F8DBE71847404C0000604C00006D
:10015000103A24BF78C878C1FAD8520724BF30C8F3
:1001600030C144BF04680C60704700007047000055
:100170000023002400250026103A28BF78C1FBD8B0
:10018000520728BF30C148BF0B6070471FB51FBD65
:1001900010B510BD00F0CFF81146FFF7F7FF02F0E1
:1001A000ADFE00F0EDF803B4FFF7F2FF03BC00F082
:1001B000F5F800000948804709480047FEE7FEE7D8
:1001C000FEE7FEE7FEE7FEE7FEE7FEE7FEE7FEE707
:1001D00004480549054A064B70470000F52E000803
:1001E000ED00000830050020300B00203007002013
:1001F00030070020032A40F2308010F0030C00F09A
:10020000158011F8013BBCF1020F624498BF11F850
:1002100001CB00F8013B38BF11F8013BA2F1040209
:1002200098BF00F801CB38BF00F8013B11F0030381
:1002300000F04F80083AC0F0088051F8043B083ABB
:1002400051F804CBA0E80810F5E7121D5CBF51F887
:10025000043B40F8043BAFF30080D20724BF11F801
:10026000013B11F801CB48BF11F8012B24BF00F866
:10027000013B00F801CB48BF00F8012B70474FF05D
:10028000000200B5134694469646203922BFA0E8E6
:100290000C50A0E80C50B1F12001BFF4F7AF0907F2
:1002A00028BFA0E80C5048BF0CC05DF804EB8900E3
:1002B00028BF40F8042B08BF704748BF20F8022B26
:1002C00011F0804F18BF00F8012B7047704770473E
:1002D000704710B5203AC0F00B80B1E81850A0E884
:1002E0001850B1E81850A0E81850203ABFF4F5AF04
:1002F0005FEA027C24BFB1E81850A0E8185044BF60
:1003000018C918C0BDE810405FEA827C24BF51F8CC
:10031000043B40F8043B08BF7047D20728BF31F8C0
:10032000023B48BF11F8012B28BF20F8023B48BF11
:1003300000F8012B7047754600F02CF8AE4605001A
:100340006946534620F00700854618B020B5FFF7F0
:100350003FFFBDE820404FF000064FF000074FF090
:1003600000084FF0000BAC46ACE8C009ACE8C0098F
:10037000ACE8C009ACE8C00921F007018D46704720
:1003800010B50446AFF300802046BDE81040FFF7EB
:100390000ABF0000004870472000002001491820D3
:1003A000ABBEFEE72600020070470000B0B582B089
:1003B00004460020019021688A68D2074BD18868E2
:1003C00040F00100886040F21800C2F200000068AE
:1003D0004DF68361C4F21B31A0FB0101880C019032
:1003E0000198A0B1019801380190019878B1019865
:1003F00001380190019850B101980138019001989D
:1004000028B101980138019001980028EAD100F044
:10041000A9FC21688968C9071CD1054603E000BF13
:100420008068C00716D100F09DFC411B206803299D
:10043000F6D38168C907F3D1A06A40F01000A0622A
:10044000E06A40F00100E062002084F8240001200E
:1004500002B0B0BD002002B0B0BD000010B584B045
:1004600040F2D440C2F200007021032264236424CD
:1004700000F030FD70B9012003A9CDE9001040F271
:10048000D440C2F20000702171220123029401F0D5
:1004900019F918B1002004B010BD00BF9DF80C0080
:1004A000000718D440F6BE00ADF80D0000208DF80E
:1004B0000F0040F2D4406424C2F200000DF10D029E
:1004C00070210323009401F00FF80146002019B9B0
:1004D0000A2000F02BFB012004B010BDFEE7000055
:1004E0007047000070B581B00022009290F824207F
:1004F000012A03D10221084601B070BD4A680123D8
:10050000062A02EB820E80F8243007D8D0F800C00B
:100510006FF004030CF134060CE000BFD0F800C00B
:100520000C2A87BF0CF12C066FF040030CF130064B
:100530006FF022030EEB03021F23346803FA02F567
:100540000B6824EA050503FA02F22A433260092BFC
:1005500003EB43021AD9DCF80C601E3A07258968C0
:100560009540AE43914023F001023143102ACCF86C
:100570000C1015D142F20041C4F201018C4517D094
:10058000816A41F02001816201210AE0DCF810302B
:10059000072689689640B34391401943CCF8101060
:1005A0000021002280F82420084601B070BD00BF61
:1005B00089680902F4D4DCF80810102B41F400011A
:1005C000CCF80810ECD140F21801C2F20001096821
:1005D0004DF68362C4F21B32A1FB0212910C01EBB7
:1005E00081014900009100990029D9D00099013971
:1005F000009100990029D3D0009901390091009908
:100600000029CDD000990139009100990029C7D067
:10061000009901390091009900294FF00001E5D1BE
:10062000BFE700000068C06C70470000002804BFEE
:1006300001207047B0B50446806A28B121688868F7
:10064000C0070CD115E000BF0020E06284F8240050
:10065000204600F097F821688868C00709D08868AC
:1006600020F00100886000F07DFB21688A68D207D5
:1006700026D1A06AC0063AD4A06A41F20212904381
:100680000230A062E069D4E9013240EA030C531E53
:10069000B3FA83F35D091346B2F5807F18BF2B02CE
:1006A000207D257B01284CEA45002CD135B3A56A75
:1006B00045F02005A562E56A45F00105E56222E006
:1006C000054602E08868C007D3D000F04BFB401B12
:1006D00021680328F6D38868C007F3D0A06A40F0E9
:1006E0001000A062E06A40F00100E062A06AA06A27
:1006F00040F01000A0620120B0BD00BFA56903EB6F
:100700004533A3F5C0534D68B2F5807F25F46945A4
:1007100043EA05034B608B684FF2FD75CFF6E17538
:1007200003EA050343EA00038B6001D0012A07D1E5
:1007300022690023CFF6F07303EB025201E000BF01
:100740000022CB6A23F470031A43CA62896840F618
:10075000FE62CFF61F721140814207D10020E06295
:10076000A16A012262F30101A162B0BDA06A40F05A
:10077000100020F00200A062E06A40F00100E06298
:100780000120B0BD80B586B0014640F60040C4F2FD
:100790000100096800F5C05291424FF00001CDE917
:1007A0000411CDE9021101D006B080BD41F218015B
:1007B000C4F202010A6842F400720A600A6802F494
:1007C00000720192019A0A6842F008020A60096800
:1007D00001F0080101910199022102910321039185
:1007E00002A900F0B7F906B080BD00002DE9F04184
:1007F00082B000270D460446019700F0B3FA216845
:100800008A68D20544D406464868C00503D4C86A3D
:1008100010F4700F46D040F21800C2F200000768D2
:1008200042F292480220C1F2492801F0CBF9216836
:1008300044F624130A69B7FBF0F0C2F292431A425D
:1008400006D1CA6844F62413C0F292031A425BD060
:100850000A6912EA080F07D1CA6842F29243C0F24D
:1008600049031A4200F0C0800A6949F24923C0F2E4
:1008700024031A424FF0FC0254D1CF681F4208BF34
:100880005422019B02FB00F7BB4250D3C3E000BFE0
:10089000A06A40F02000A06284F82470012002B019
:1008A000BDE8F0810868800700F1B580681C00F0A1
:1008B000A880FDB90868800770D50868800700F136
:1008C000AA800868800769D50868800700F1A380BE
:1008D0000868800762D50868800700F19C80086876
:1008E00080075BD508688007E4D594E00868800736
:1008F00000F1918000F036FA801B2168A842F5D9FA
:1009000008688007F2D449E00A6912EA080F4FF03C
:10091000290207D1CB6842F29247C0F249073B4215
:1009200008BF1422019B02FB00F7BB4273D2681C74
:1009300052D05DBB0198B84230D30198013001908C
:100940000198B84267D20198B84227D30198013084
:1009500001900198B8425ED20198B8421ED3019826
:10096000013001900198B84255D20198B84215D390
:100970000198013001900198B842DBD34BE000BFF1
:100980000198013001900198B84235D200F0EAF99F
:10099000801BA842F4D90198B842F1D2A06A40F075
:1009A0000400A062002084F82400032002B0BDE807
:1009B000F08100BF0198013001900198B8422AD21D
:1009C0000198013001900198B84224D20198013079
:1009D00001900198B8421ED201980130019001980F
:1009E000B842E7D317E000BF5422019B02FB00F797
:1009F000BB429CD30FE000BF21680CE00868800771
:100A000009D40868800706D4086880075CBF0868B6
:100A10005FEA8070F2D56FF012000860A06A40F4BF
:100A20000070A062886800F46020B0F5602F01D1EA
:100A3000207B18B1002002B0BDE8F081A06A20F44C
:100A40008070A062A06AC004F4D4A06A40F00100E3
:100A5000A062002002B0BDE8F081000010B504469D
:100A600090F82400012804BF022010BD012084F862
:100A700024002046FFF79AFC20B1002084F82400CF
:100A8000012010BD42F2044C2068A16AC4F2010C9E
:100A900040F2013291430CF57F7201F58071904272
:100AA000A16229D0A16A21F48011A162416849059F
:100AB00004D5A16A012363F30D31A162A16A002369
:100AC000C9044FF0000144BFE16A21F00601E16270
:100AD0006FF0020184F824300160816801F4602124
:100AE000B1F5602F1BD1904214D0816841F4A00170
:100AF0008160002010BD00BFDCF8001011F4702FE1
:100B0000D0D0A16A41F48011A162DCF8001049053F
:100B1000CFD4D3E7DCF8001011F4702FE5D0816852
:100B200041F480118160002010BD0000B0B5044682
:100B300000F018F9054640F20000C2F2000000780B
:100B4000611C18BF044400BF00F00CF9401BA04218
:100B5000FAD3B0BD2DE9F04F82B00E68002E00F040
:100B6000FD8041F20042C4F20102042340F2004E33
:100B7000904208BF03234FF6FF7CC4F2010E00939E
:100B800000240123C1F2100C4FF0000A4FF00009BD
:100B90004BE000BF41F20002C4F20102009F90420C
:100BA00008BF022704F00C030F229A402BEA02022E
:100BB00007FA03F34FEA9A051A4346F825204E68D0
:100BC00040F20C45F202DEF8082054BF22EA080287
:100BD00042EA0802C4F20105CEF808202A68B302EE
:100BE00054BF22EA080242EA08022A60B303DEF890
:100BF000042054BF22EA080242EA0802F303CEF8B6
:100C00000420DEF800204FF0010354BF22EA08025E
:100C100042EA0802CEF800200E680AF1010A36FA0C
:100C20000AF204F1040400F0998003FA0AFB16EAC0
:100C30000B08F1D04E68664512DC122E56D8DFE85C
:100C400006F0350B4D495555555555555555555586
:100C500055555545510000BFD1F80C9046E000BFF6
:100C60004FF6FF72C1F2210296420FDC0022C1F260
:100C7000110296421AD00022C1F21202964215D0F9
:100C80000022C1F22102964210D02FE00022C1F2D0
:100C9000220296420AD00022C1F23102964205D0C9
:100CA0000022C1F23202964220D100BF8A684AB1C6
:100CB000012A14BFC0F814B0C0F810B04FF00809F2
:100CC00014E000BF4FF0040910E000BFCA6802F151
:100CD00004090BE04FF0000908E000BFCA6802F108
:100CE000080903E0CA6802F10C0900BF0246264663
:100CF000B8F5807F24BF0432203E17680F25B54029
:100D000027EA050509FA06F635431560CA79D206C1
:100D10007FF582AF41F21803C4F202031A68AEF500
:100D20007E7642F001021A601A6802F00102019216
:100D3000019A2AF0030256F802B040F60002C4F20B
:100D40000102904208D040F60042C4F201029042F3
:100D50007FF420AF012725E7002723E702B0BDE895
:100D6000F08F000040F22850C2F200000068704787
:100D7000002804BF01207047F0B581B0044690F808
:100D80003D0028B9002084F83C00204600F040FED9
:100D9000242084F83D002068016821F001010160F1
:100DA000016841F400410160016821F400410160E3
:100DB00001F0E4F8636848F2A16CC0F2010C40F65F
:100DC0000011C0F23D0163453CBF48F28041C0F2D2
:100DD0001E01884202D2012001B0F0BD4DF68361B0
:100DE000C4F21B31A0FB01122168970CD1F804E07A
:100DF0004FF496762EF03F0545EA92454D607743D5
:100E000048F638160D6AC0F24106A7FB067625F0B3
:100E10003F07634538BF960C721C3A430A62CA69A1
:100E200048F2A0664CF6FF77C0F20106B34222EA10
:100E300007020BD801385B00B0FBF3F001306FF311
:100E40001F30042898BF04201BE000BFA7680138AA
:100E500057B119277B43B0FBF3F001306FF31F301C
:100E600070B100F5804007E003EB4303B0FBF3F003
:100E700001306FF31F3018B100F5004001E000BFF2
:100E800001201043C8610868D4E9072320F0C0009E
:100E9000104318430860886848F2FF3204F10C07D9
:100EA00090438CCF18431043A6698860C86820F02F
:100EB000FF0038433043C860086840F00100086014
:100EC00000202021206484F83D10206384F83E0037
:100ED00001B0F0BD2DE9F04F83B01E469246884622
:100EE0000446FFF73FFF94F83D10202924D12168E4
:100EF000054600BF886980071AD5FFF733FF401BFE
:100F000021681A28F6D388698007F3D500202021AC
:100F1000206384F83D1084F83E00216C41F02001EC
:100F2000216484F83C00022003B0BDE8F08F00BFCC
:100F300094F83C00012803D1022003B0BDE8F08FF3
:100F40004FF0010984F83C900868C00703D1086895
:100F500040F0010008600868002720F40060086085
:100F6000242084F83D000020CFF6FF702764E06263
:100F700008F0FE08BAF1010F88BFD1464FF0A00A71
:100F80004FF0200B04E000BF01374F4500F0A28076
:100F90000868002240F48070086020464FF001117C
:100FA0003346009501F012FB2168002856D1C1F8A4
:100FB0001080FFF7D7FE21684B694A6994F83D50CD
:100FC000A02D054605D013F0020008BF12F4806082
:100FD0001AD084F83DB048690A68800742F400726C
:100FE0000A6045D46FF48060486100BF886980075B
:100FF000CAD5FFF7B7FE401B21681A28F6D38869C7
:101000008007F3D54AE000BFB6B100BFFFF7AAFEE4
:10101000401BB04288BF84F83DA021684A694869F6
:1010200094F83D30A02BD4D012F0020208BF10F487
:101030008060EBD0CDE700BFFFF794FE84F83DA0C1
:1010400021684A69486994F83D30A02BC1D012F05C
:101050000202BED110F48060EED0BAE70868C00585
:1010600044BF4FF400702064032003B0BDE8F08F4C
:10107000002002904869029088690290029888696D
:1010800001E000BF806980071AD5FFF76BFE411BA6
:1010900020681A29F6D381698907F3D50020202119
:1010A000206384F83D1084F83E00216C41F020015B
:1010B000216484F83C00012003B0BDE8F08F00BF3C
:1010C000202084F83D00002084F83C0003B0BDE8F7
:1010D000F08F00BF202084F83D00002084F83C0001
:1010E000012003B0BDE8F08F2DE9F04784B004463D
:1010F00000201F46164689460290FFF733FE94F8FB
:101100003D10202924D10546206800BF8169890748
:101110001AD5FFF727FE411B20681A29F6D38169EB
:101120008907F3D500202021206384F83D1084F83E
:101130003E00216C41F02001216484F83C00022033
:1011400004B0BDE8F08700BF94F83C10012903D13A
:10115000022004B0BDE8F087012184F83C1001684A
:10116000C90703D1016841F0010101600168DDF8A0
:10117000308021F400610160222184F83D101021AB
:1011800084F83E100021216466626785618D022724
:10119000C0F201072185A7F10211E162E16A02684C
:1011A00011F5803F42F48062026018BF01293DD1F1
:1011B000016841F48071016020464FF00111002266
:1011C0004346009501F002FA50B120680068C0055E
:1011D00044BF4FF400702064012004B0BDE8F087E4
:1011E0002069B0F5804F27D149F00100C0B22168D5
:1011F00042460861204639462B4601F0CDFA0028C8
:10120000EAD1208D022861D0012849D0002840F081
:1012100073800020039020684169039181690391E4
:101220000399016841F40071016071E00829BFD0A1
:10123000216B1129BCD0BFE7062000EAD91620682F
:1012400006F1F0010161B91D204642462B4601F02E
:10125000A3FA0028C0D120685FFA89F10161204615
:10126000394642462B4601F097FA0028B4D10020B7
:1012700003902068002241694346039181690391EC
:101280000399016841F48071016020464FF001111B
:10129000009501F09BF9002897D146F0F100A6E7F0
:1012A0002068016821F480610160EFF3108072B65C
:1012B000002003902068416903918169039103999B
:1012C000016841F40071016062B621E020680168A4
:1012D00041F400610160EFF3108072B600200390CA
:1012E000206841690391816903910399016821F4A0
:1012F0008061016062B60BE02068016841F48061A2
:101300000160002103914169039180690390039872
:10131000208D002800F0CA8040F218094BF2895A4B
:101320000237C2F20009C1F2F84A23260EE000BFDC
:1013300010690870606A218D01306062481E208546
:10134000618D01396185010400F0B08080B203280D
:101350000CD802282CD001284AD1204641462A46E2
:1013600001F086FA002800F09C8035E720464146CF
:101370002A4601F07DFA00287FF42EAF2068616ACA
:1013800000690870606A2268411C208D6162013822
:101390002085638D013B638553695B07D3D580B29C
:1013A0000328C5D1106820F480601060C0E700BF3A
:1013B0002046394600224346009501F007F90028EF
:1013C0007FF40AAFEFF3108072B62068616A02689A
:1013D00042F40072026000690870606A218D013079
:1013E0006062481E2085608D0138608562B658E0D5
:1013F0002046394600224346009501F0E7F80028D0
:101400007FF4EAAE2068016821F480610160EFF3A7
:10141000108072B62068616A00690870606A218D68
:101420000130013960622185618D01396185D9F80A
:101430000010C908A1FB0A12110A71430291029916
:1014400001390291029900293CD021684A6952076A
:1014500017D4029A013A0292029A9AB34A69520741
:101460000FD4029A013A0292029A5AB34A69520779
:1014700007D4029A013A0292029A1AB34A695207B1
:10148000DDD50A6842F400720A6009690170606A79
:10149000218D01306062481E2085608D0138608595
:1014A00062B62068616A006943E700BF202084F8C3
:1014B0003D00002084F83E0084F83C0004B0BDE804
:1014C000F08700BF00202021206384F83D1084F8BD
:1014D0003E00216C41F02001216462B684F83C009A
:1014E000012004B0BDE8F0872DE9F04383B01E462B
:1014F000174689460446FFF735FC94F83D1020292D
:1015000024D10546206800BF816989071AD5FFF7F5
:1015100029FC411B20681A29F6D381698907F3D574
:1015200000202021206384F83D1084F83E00216CC7
:1015300041F02001216484F83C00022003B0BDE8A2
:10154000F08300BF94F83C10012903D1022003B0BE
:10155000BDE8F083012184F83C100168C90703D17C
:10156000016841F001010160016840F2020821F4C4
:1015700000610160212184F83D10102184F83E10A3
:101580000021216467626685618DC0F201082185B2
:10159000A8F10211E162E16A0A9E11F5803F18BFCD
:1015A00001291DD1016841F48071016020464FF08E
:1015B000011100223346009501F008F850B120686F
:1015C0000068C00544BF4FF400702064012003B0E0
:1015D000BDE8F0832069B0F5804F07D1FE2015E00B
:1015E0000829DFD0216B1229DCD0DFE7062000EAD2
:1015F000D9102168F030086108F106012046324612
:101600002B4601F0C9F80028E0D1FF20216800EA4C
:10161000090008612046414632462B4601F0BCF8DD
:101620000028D3D10020029020684169029180698E
:101630000290029806E000BF204631462A4600F09C
:1016400067FF18BB208D68B3204631462A4601F05B
:1016500057F9D8B9606A2168024612F8013B0B615C
:101660006262628D013A6285228D531E23854F6925
:101670007F07E1D51B04DFD0437802300B61606245
:10168000608D01386085901E2085D5E7206C042888
:101690009CD12068016841F400710160012003B011
:1016A000BDE8F0832068016841F4007101602020EA
:1016B00084F83D00002084F83E0084F83C0003B02C
:1016C000BDE8F0832DE9F04F85B00446002099462F
:1016D00016460F460490FFF745FB94F83D1020296D
:1016E00027D10546206800BF816989071CD5FFF70F
:1016F00039FB411B20681A29F6D381698907F3D584
:1017000000202021206384F83D1084F83E00206CE6
:1017100004F13C0A40F020002064022000218AF8F5
:10172000001005B0BDE8F08FA2461AF83C1F012951
:1017300004D1022005B0BDE8F08F00BF01228AF875
:1017400000200368DDE90F180E9ADB0703D1036858
:1017500043F001030360036823F400630360222065
:1017600084F83D00402084F83E000020206462623E
:101770006185608D394620850020CFF6FF70E062DC
:10178000204632464B46CDE9008500F037FE18B1C1
:10179000012005B0BDE8F08F208D022826D0012859
:1017A0000ED0002838D100200390206841690391B1
:1017B000816903910399016841F40071016037E088
:1017C0002068016821F480610160EFF3108072B637
:1017D0000020039020684169039181690391039976
:1017E000016841F40071016062B621E0206801687F
:1017F00041F400610160EFF3108072B600200390A5
:10180000206841690391816903910399016821F47A
:101810008061016062B60BE02068016841F480617C
:10182000016000210391416903918069039003984D
:10183000208D002800F0CC80042740F218094BF2DC
:10184000895BC0F20107C2F20009C1F2F84B2326FE
:101850000EE000BF10690870606A218D013060627F
:10186000481E2085618D01396185010400F0B0803A
:1018700080B203280CD802282CD001284AD1204657
:1018800041462A4600F0F4FF002800F09C807FE7E4
:10189000204641462A4600F0EBFF00287FF478AF4F
:1018A0002068616A00690870606A2268411C208DA6
:1018B000616201382085638D013B638553695B0755
:1018C000D3D580B20328C5D1106820F480601060A1
:1018D000C0E700BF2046394600224346009500F08D
:1018E00075FE00287FF454AFEFF3108072B62068C5
:1018F000616A026842F40072026000690870606AFE
:10190000218D01306062481E2085608D0138608520
:1019100062B658E02046394600224346009500F062
:1019200055FE00287FF434AF2068016821F48061FF
:101930000160EFF3108072B62068616A0069087078
:10194000606A218D0130013960622185618D013924
:101950006185D9F80010C908A1FB0B12110A714367
:101960000491049901390491049900293CD021681B
:101970004A69520717D4049A013A0492049A9AB316
:101980004A6952070FD4049A013A0492049A5AB34E
:101990004A69520707D4049A013A0492049A1AB386
:1019A0004A695207DDD50A6842F400720A60096983
:1019B0000170606A218D01306062481E2085608D53
:1019C0000138608562B62068616A006943E700BF3C
:1019D000202084F83D00002084F83E0000218AF891
:1019E000001005B0BDE8F08F00202021206384F8AE
:1019F0003D1084F83E00206C40F02000206462B668
:101A0000012000218AF8001005B0BDE8F08F000029
:101A100010B586B0016845F20040C4F20000814272
:101A20004FF00001CDE90411CDE9021102D006B05A
:101A300010BD00BF41F21804C4F20204216800F591
:101A4000384041F008012160216801F0080101914E
:101A50000199C0210291122103910321059102A94C
:101A6000FFF778F8606840F400106060606800F488
:101A700000100190019806B010BD000040F2000077
:101A800040F22851C2F20000C2F2000100780A6858
:101A9000104408607047000080B542F20000C4F2B4
:101AA0000200016841F010010160032000F07AF8A3
:101AB0000F2000F005F800F027F8002080BD00009E
:101AC00070B540F20006C2F2000640F2180132780A
:101AD000C2F200014FF47A730968B3FBF2F20446D4
:101AE000B1FBF2F1084600F071FC0F2C4FF001053C
:101AF00008D838B94FF0FF3021460022002500F009
:101B000025F87460284670BD82B041F21800C4F216
:101B100002000168022241F001010160016801F048
:101B2000010101910199416841F080514160406893
:101B300000F08050009000980420C4F20100016879
:101B400062F31A61016002B07047000010B54EF6F2
:101B50000C5CCEF2000CDCF80030C3F3022E8EF0E9
:101B60000704042C28BF0424BEF103034FF0FF3EFA
:101B70000EFA04F438BF0023A14399400EFA03F390
:101B80009A43114300F00F0200F160430901043A47
:101B900003F564436244002848BF02F10C03197046
:101BA00010BD00004EF60C51CEF200010A684FF64F
:101BB000FF031A4060F30A2242F0806040F0FD709B
:101BC00008607047012821D002280DD0102808D1C4
:101BD00041F20401C4F202010A6851F8040CC00188
:101BE00034D40020704700BF80B500F0DBF941F22B
:101BF0000401C4F2020109680222C1F3813102EB3F
:101C00004101B0FBF1F0BDE88040704741F20400B3
:101C1000C4F20200C16940F202320A40B2F5817F8B
:101C200004BF4FF40040704701F44071B1F5407FAC
:101C300018D0B1F5007F1CBF00207047006A49F63C
:101C40004041800701EAE070704700BFC2F3834063
:101C500015A3185CD2030DD440F60012C0F23D0269
:101C6000504313E050F8040C4FF22441800301EA82
:101C7000E07070470A6810A3C2F340429A5C41F2D8
:101C80000023C0F27A03B3FBF2F250430968490221
:101C900048BF70474AF6AB214000CAF6AA21A0FB14
:101CA00001014808704700BF020304050607080940
:101CB0000A0B0C0D0E0F1010010200002DE9F0416F
:101CC00082B00446007841F21C06C007C4F2020646
:101CD0004AD030685FEAC00808D4306840F08050CD
:101CE0003060306800F080500190019847F20007A2
:101CF000C4F200073868C00512D4386840F4807018
:101D00003860FFF72FF805463868C00508D4FFF79C
:101D100029F8401B6428F7D9032002B0BDE8F08100
:101D2000706810F4407012D0616801F4407188420C
:101D30000DD0706840F24042C4F24222012320F4E8
:101D4000407113600023C0071360716026D1706872
:101D5000616820F440700843B8F1000F706003D44C
:101D6000306820F0805030602068810707D556F831
:101D7000181CA26821F44041114346F8181CC00603
:101D800007D556F8180CE16820F48000084346F89F
:101D9000180C002002B0BDE8F08100BFFEF7E2FFA2
:101DA000054641F2883700BF70688007CFD4FEF740
:101DB000D9FF401BB8424FF00300F5D9EAE7000015
:101DC000002804BF012070472DE9F04381B042F2A2
:101DD0000008C4F202080446D8F800000D4600F0DE
:101DE000070081420CD9D8F8000020F007002843F2
:101DF000C8F80000D8F8000000F00700A8426CD135
:101E0000206841F204098107C4F2020917D541078D
:101E100005D5D9F8001041F4E061C9F800100107B8
:101E200005D5D9F8001041F46051C9F80010D9F86F
:101E30000010A26821F0F0011143C9F80010C0079A
:101E400042D1D8F8000000F0070085420CD2D8F843
:101E5000000020F007002843C8F80000D8F8000070
:101E600000F00700A84238D12068410707D5D9F80B
:101E70000010E26821F4E0611143C9F80010000786
:101E800008D5D9F80000216920F4605040EAC1006B
:101E9000C9F80000D9F8002002F00C00082841F22F
:101EA0000020C0F27A004DD144F67853C2F383414A
:101EB000C0F60003595CD20338D440F60010C0F2DB
:101EC0003D0048433EE000BF606859F8041C02280A
:101ED00008D0012826D1890306D4012001B0BDE82D
:101EE000F08300BF8901F8D5D9F8001021F0030173
:101EF0000843C9F80000FEF735FF064641F288376F
:101F0000D9F80000616800F00C00B0EB810F98D0A8
:101F1000FEF728FF801BB842F2D9032001B0BDE8CC
:101F2000F08300BF8907D8D5DEE700BFD9F80020CD
:101F300044F67653C2F34042C0F600039A5C48432D
:101F4000B0FBF2F0D9F8001043F69602C1F303118A
:101F5000C0F60002515C40F2180220FA01F140F292
:101F60000400C2F200000068C2F200021160FFF734
:101F7000A7FD002001B0BDE8F083000040F218008A
:101F800041F20401C2F20000C4F2020100680968D3
:101F900043F6A602C1F30221C0F60002515CC8401C
:101FA0007047000040F2180041F20401C2F2000044
:101FB000C4F202010068096843F6A602C1F3C22117
:101FC000C0F60002515CC84070470000002804BF02
:101FD000012070472DE9F04182B00446007841F2BB
:101FE0000006C007C4F202060CD0706800F00C00B6
:101FF000042840F081803068800303D560680028A1
:1020000000F04681207880071BD5706810F00C0F17
:1020100009D0706800F00C00082840F087807068D4
:10202000C00300F183803068800703D52069012850
:1020300040F02E813068616920F0F80040EAC1006C
:1020400030602078000713D4207840072CD4E5694D
:10205000002D00F01881706800F00C00082840F096
:10206000A780012D40F00481012002B0BDE8F0817D
:10207000A069002800F084800020C4F242200121E1
:10208000C0F88014FEF76EFE054600BF706A800738
:1020900000F1B280FEF766FE401B0228F6D903204D
:1020A00002B0BDE8F08100BFF0695FEAC00808D463
:1020B000F06940F08050F061F06900F080500090CD
:1020C000009847F20007C4F200073868C00549D4F9
:1020D000386840F480703860FEF744FE054600BF63
:1020E0003868C0053ED4FEF73DFE401B6428F7D992
:1020F000032002B0BDE8F081706800F00C000828F1
:1021000003D17068C0033FF576AF6168306800297D
:1021100000F00C81B1F5A02F00F00081B1F5803FF7
:1021200040F01A8140F480301CE100BF2069002893
:1021300040F20000C4F2422000F0888001210160DA
:10214000FEF710FE054600BF306880073FF572AF0E
:10215000FEF708FE401B0228F6D9032002B0BDE8B6
:10216000F08100BFE168306A002900F09D800529F8
:1021700000F09280012940F0AF8040F00100B1E012
:102180000020C4F242200021C0F88014FEF7EAFDCE
:10219000054600BF706A80077FF556AFFEF7E2FD87
:1021A000401B0228F6D9032002B0BDE8F08100BF31
:1021B0000027C4F2422700203866FEF7D3FD022D27
:1021C00005460DD13068800140F1DE80FEF7CAFD82
:1021D000401B02284FF00300F4D902B0BDE8F081A3
:1021E000306880014FD5FEF7BDFD401B02284FF03F
:1021F0000300F5D9F1E700BF40F21800C2F2000079
:10220000006844F6D351C1F26201A0FB0101480A03
:10221000019000BF00BF0198411E002801913FF4CA
:1022200013AF00BF0198411E002801913FF40CAF8D
:1022300000BF0198411E002801913FF405AF00BF87
:102240000198411E00280191E4D1FDE600210160C2
:10225000FEF788FD054600BF306880077FF5F1AEC8
:10226000FEF780FD401B02284FF00300F4D9B4E7CD
:102270007068216A00F480328A4209D1616A00F4F0
:102280007010884204D1002002B0BDE8F08100BF88
:10229000012002B0BDE8F08140F004003062306AF5
:1022A00040F001001EE000BF20F001003062306A03
:1022B00020F004003062FEF755FD054641F28837F4
:1022C000306A800720D5FEF74DFD401BB8424FF025
:1022D0000300F5D981E700BF20F001003062306AC9
:1022E00020F004003062FEF73DFD054641F28837DC
:1022F000306A800708D4FEF735FD401BB842F7D995
:10230000032002B0BDE8F081B8F1000F3FF59FAEA9
:10231000F06920F08050F06199E600BF40F4802021
:102320003060306840F480301CE000BF20F4803022
:102330003060306820F480203060FEF713FD0546E1
:10234000306880037FF55EAEFEF70CFD401B64280D
:102350004FF00300F4D940E720F48030306030685B
:1023600020F480203060FEF7FDFC054630688003D5
:102370003FF548AEFEF7F6FC401B6428F6D9032073
:1023800002B0BDE8F08100BF206AB0F5803F05D102
:102390007168A26821F40031114371607168626A4A
:1023A00021F4741111430843706001203866FEF770
:1023B000D9FC0446306880013FF565AFFEF7D2FCDA
:1023C000001B02284FF00300F4D906E7411E00204D
:1023D000B0EB116F1CBF012070474EF21002CEF21D
:1023E000000251604EF62351CEF20001F0230B7033
:1023F0000721906011607047FEE700002DE9F0476B
:1024000082B0044600689A460B9D0A9E0368914676
:1024100043F48062026002680F4642F480710160FA
:1024200020464FF0011100223346009500F0CEF80F
:1024300050B120680068C00544BF4FF400702064AC
:10244000032002B0BDE8F08740F202082068C0F225
:10245000010807F0FE0707612046414632462B4639
:1024600000F09AF920B1012002B0BDE8F08700BF6A
:102470000020019020682A46416901918069314617
:1024800001900198204600F03BFAB0B92068BAF1FB
:10249000010F09D04FEA19210161204631462A4631
:1024A00000F02EFA48B920685FFA89F101612046F0
:1024B00031462A4600F024FA60B1206C0428D2D1BB
:1024C0002068016841F400710160012002B0BDE89C
:1024D000F08700BF206800220168334641F4807114
:1024E000016020464FF00111009500F06FF80028C0
:1024F0009FD147F0010C27682046414632462B46C3
:10250000C7F810C002B0BDE8F04700F045B90000C0
:1025100070B50368044653F8140F400711D40E46F3
:10252000481C29D086BB00BF1868400527D4FEF799
:1025300019FC236853F8140F400737D51868400773
:10254000F2D5002070BD00BF18684007F9D41868A4
:10255000400514D418684007F3D4186840050ED419
:1025600018684007EDD41868400508D4186840077B
:102570004FF0000048BF70BD18684005E4D56FF407
:1025800080601860042012E0154603E053F8140F31
:102590004007D6D418684005F1D4FEF7E3FB401B92
:1025A0002368B042F2D958694007EFD420200021B7
:1025B0002022216384F83D2084F83E10226C1043D1
:1025C0002064012084F83C1070BD00002DE9F0412A
:1025D000054600681E46144601F47F0201338FB29F
:1025E00042D0DDF81880B2F5803F40F08780406926
:1025F0003840C01BB0FA80F04009844240F0C880E7
:102600004EB924E040693840C01BB0FA80F0400960
:10261000844240F0BD80FEF7A5FBA0EB08012868CE
:10262000B142EFD941693940C91BB1FA81F1490979
:102630008C42E7D19BE000BF40693840C01BB0FA34
:1026400080F0400984424FF0000040F0A280FEF785
:1026500089FB286841693940C91BB1FA81F14909F0
:102660008C42E9D183E000BFB2F5803F24D100BFA6
:1026700041693940C91BB1FA81F149098C4240F0E6
:10268000878041693940C91BB1FA81F149098C42FF
:1026900040F07E8041693940C91BB1FA81F1490996
:1026A0008C4275D141693940C91BB1FA81F14909A0
:1026B0008C42DDD06CE000BF81693940C91BB1FAA2
:1026C00081F149098C4263D181693940C91BB1FA52
:1026D00081F149098C425BD181693940C91BB1FA4A
:1026E00081F149098C4253D181693940C91BB1FA42
:1026F00081F149098C42DFD04AE000BF806938404F
:10270000C01BB0FA80F04009844241D146B923E0B1
:1027100080693840C01BB0FA80F04009844237D14C
:10272000FEF720FBA0EB08012868B142F0D98169CF
:102730003940C91BB1FA81F149098C42E8D116E050
:1027400080693840C01BB0FA80F0400984424FF0E5
:10275000000018BFBDE8F081FEF704FB286881691E
:102760003940C91BB1FA81F149098C42E8D10020F6
:102770002021286385F83D1085F83E00296C41F042
:102780002001296485F83C000120BDE8F08100BFEC
:102790000020BDE8F0810000F0B581B0044600687B
:1027A0001D4643698FB203EA0701B94202D10020F6
:1027B00001B0F0BD4169164601323CD0490512D442
:1027C0007EB300BFFEF7CEFA411B2068B14203D9A9
:1027D00041693940B9422BD141693940B942E6D00B
:1027E00041694905EED5016841F4007101606FF45B
:1027F00080614161042000212022216384F83D2072
:1028000084F83E10226C1043206484F83C100120B0
:1028100001B0F0BD41693940B942C8D041694905AC
:10282000E1D4FEF79FFA206841693940B942F1D0FE
:102830002020E0E741694905D5D441693940B942D2
:10284000B5D041694905CED441693940B942AED0CD
:1028500041694905C7D441693940B942A7D04169A6
:102860004905C0D441693940B942E3D19FE700002E
:1028700070B504460068154650F8143F5A063DD41A
:102880000E4629B926E000BF50F8141F490635D47A
:102890000168C90621D4FEF765FA411B2068B142E0
:1028A000F2D941694906EFD400202021206384F841
:1028B0003D1084F83E00206C40F0200018E000BF7E
:1028C000FEF750FA206850F8141F4906ECD501684D
:1028D000490613D40168C906F2D56FF010010160F2
:1028E00000202021206384F83D1084F83E00206CF5
:1028F0002064002084F83C00012070BD002070BDE1
:1029000070B50368044653F8140F000611D40E4640
:10291000481C29D086BB00BF1868400527D4FEF7A5
:1029200021FA236853F8140F000637D518680006FB
:10293000F2D5002070BD00BF18680006F9D41868F1
:10294000400514D418680006F3D4186840050ED466
:1029500018680006EDD41868400508D41868000609
:102960004FF0000048BF70BD18684005E4D56FF413
:1029700080601860042012E0154603E053F8140F3D
:102980000006D6D418684005F1D4FEF7EBF9401BD9
:102990002368B042F2D958690006EFD42020002104
:1029A0002022216384F83D2084F83E10226C1043DD
:1029B0002064012084F83C1070BD0000FEE7000098
:1029C000FEE700007047000080B540F2D400C2F27C
:1029D00000004FF48061FDF752FCBDE8804000F03C
:1029E00035BA000040F28002C2F2000250809180AD
:1029F000704700002DE9F04182B040F2D440C2F2AD
:102A000000007821012244F62063FEF763FA4FF0BC
:102A1000000418B1204602B0BDE8F08140F2D44570
:102A20004FF42E40C2F20005ADF806000A260DF163
:102A300006022846782102230096FEF755FD4FF442
:102A400000580DF10602284678210223ADF80680D1
:102A50000096FEF749FD4FF480570DF10602284617
:102A600078210223ADF806700096FEF73DFD4FF485
:102A70003040ADF806000DF1060228467821022309
:102A80000096FEF731FD4FF44840ADF806000DF119
:102A900006022846782102230096FEF725FD0DF157
:102AA0000602284678210223ADF806400096FEF77C
:102AB0001BFD0DF10602284678210223ADF80670B1
:102AC0000096FEF711FD4FF48040ADF806000DF1C1
:102AD00006022846782102230096FEF705FD4FF4F2
:102AE0000140ADF806000DF10602284678210223C8
:102AF0000096FEF7F9FC4FF47F40ADF806000DF1AB
:102B000006022846782102230096FEF7EDFC4FF4DA
:102B10002140ADF806000DF1060228467821022377
:102B20000096FEF7E1FC4FF42640ADF806000DF1EB
:102B300006022846782102230096FEF7D5FC4FF4C2
:102B40002840ADF806000DF1060228467821022340
:102B50000096FEF7C9FC4FF47C50ADF806000DF16D
:102B600006022846782102230096FEF7BDFC4FF4AA
:102B70002440ADF806000DF1060228467821022314
:102B80000096FEF7B1FC4FF45340ADF806000DF18E
:102B900006022846782102230096FEF7A5FC0DF1D7
:102BA0000602284678210223ADF806400096FEF77B
:102BB0009BFC4FF45540ADF806000DF10602284687
:102BC000782102230096FEF78FFC4FF47040ADF899
:102BD00006000DF106022846782102230096FEF732
:102BE00083FC4FF45940ADF806000DF1060228466B
:102BF000782102230096FEF777FC4FF40850ADF8D9
:102C000006000DF106022846782102230096FEF701
:102C10006BFC4FF45A40ADF806000DF10602284651
:102C2000782102230096FEF75FFC4FF49050ADF838
:102C300006000DF106022846782102230096FEF7D1
:102C400053FC4FF45B40ADF806000DF10602284638
:102C5000782102230096FEF747FC0DF10602284674
:102C600078210223ADF806800096FEF73DFC4FF474
:102C70000D40ADF806000DF106022846782102232A
:102C80000096FEF731FC4FF4A050ADF806000DF1B0
:102C900006022846782102230096FEF725FC4FF411
:102CA0002F40ADF806000DF10602284678210223D8
:102CB0000096FEF719FC4FF43850ADF806000DF100
:102CC00006022846782102230096FEF70DFC40F20A
:102CD000D400C2F200004FF48061FDF7D0FA00F09A
:102CE000B5F840F28000C2F20000C0F802400124B2
:102CF000204602B0BDE8F0812DE9F04F89B040F2E6
:102D00008005C2F200056B8891F8008008EB03078C
:102D10007F2F05D89C46AB884E78F7183F2F03D9F4
:102D2000002009B0BDE8F08F002E009066D02D780D
:102D30002038B5FA85F77C09B2FA82F70290780953
:102D40000790002D18BF01254868121BB2FA82F2C5
:102D5000019000275009444608950690CDE90331BB
:102D600004E000BF00240137B74247D2002CF9D05D
:102D7000DA1995B23F2DF6D80298019B704303EB08
:102D8000400030F817A002F00700012303FA00F515
:102D90004FF4607091F8008000EA021B6FEA050EA4
:102DA0000022059703E000BF0132424520D20CEB20
:102DB00002061FFA86F9B9F17F0FF5D846EA0B062D
:102DC00040F2D4000AFA02F1B6B2C2F200000904DD
:102DD000835D0699DDE9077458BF87EA040103EAB9
:102DE0000E04002918BF43EA05048455DCE700BF40
:102DF0000499039B4E78059F4446B4E75FFA88F038
:102E000040F280016044C2F2000148805DF8240B6A
:102E1000BDE8F08F0378002B04BF0020704770B529
:102E200014460D46461C00BFD8B229462246FFF77D
:102E300063FF16F8011C884204D116F8013B002BF1
:102E4000F2D10021BDE87040084670472DE9F04FEF
:102E5000C1B00DF1040B40F2D4460BF101094FF063
:102E600000086FF07F050A24C2F200064FF0000A46
:102E700040F2D4008035C2F200002F184AF0B000B2
:102E80008DF80500304678215A4602238DF80480DB
:102E90000094FEF729FB304678215A460223ADF80C
:102EA00004800094FEF720FB4FF48050ADF804003E
:102EB000304678215A4602230094FEF715FB402045
:102EC0008DF80400484639468022FDF793F93046D4
:102ED00078215A4681230094FEF706FBB5F5607F02
:102EE0000AF1010AC4D141B0BDE8F08F704700007B
:102EF000FEF7C4BD70470000FEE7000094B0FEF787
:102F0000CBFD0AAC201D2421FDF7B9F902200A905F
:102F100001200E90102000250F9020460495CDE949
:102F200002551195FFF752F820B1EFF3108072B6F9
:102F3000FEE700BF0F20CDE9050505A80021CDE97A
:102F400007550995FEF73CFF20B1EFF3108072B6EC
:102F5000FEE700BF02200190002401A80394FEF7C1
:102F6000ADFE28B1EFF3108072B600BFFEE700BFE0
:102F700041F21800C4F20200016845F2004541F038
:102F8000080101600168C4F2000501F008010A911E
:102F90000A9901684FF4804241F004010160006821
:102FA00041F6802100F004000A900A9840F2D440D3
:102FB000C2F20000C0F20601C0E90051C0E90244BB
:102FC000C0E90424C0E906440462FDF7D1FE28B13B
:102FD000EFF3108072B600BFFEE700BF40F2880A30
:102FE000C2F2000A05F55041504640F81C1F00246B
:102FF00001254FF4602105730475C161C0E90144E6
:103000000561FDF713FB28B1EFF3108072B600BF26
:10301000FEE700BF09200C940AF11C04CDE90A0563
:103020000AA92046FDF75EFA20B1EFF3108072B6D0
:10303000FEE700BFFFF7DEFC2046FDF70FFDFDF7C2
:103040000DFA8AF800000020002140F2080840F242
:103050001007C4F2C810C4F248214FF0000BC2F2AE
:103060000008C2F20007CAE901012BE00020142188
:10307000FFF7B8FCB9A041460122FFF7CBFE0020C4
:103080002A21FFF7AFFCB7A039460122FFF7C2FEA5
:103090009AF80100B8A50128B5A108BF0D4602287D
:1030A000B6A008BF054641202A21FFF79BFC284611
:1030B00039460122FFF7AEFEFFF7C8FE4FF4FA7063
:1030C000FDF734FD20464FF47A71FDF78FFB204663
:1030D000FDF7A8FA81B2AAF8020040F6FC0081428E
:1030E00040F20000C4F2481010D80020B1F5E16FA2
:1030F000C4F216200AD840F2DC50814240F20000AF
:10310000C4F2AF2084BF0020C4F27A209AF80010E5
:10311000CAF80C00A1B143F2AC30ADF8140040F293
:10312000D440C2F20000702105AA032364268DF862
:1031300016B00096FEF7D8F900287BD08AF800B0C8
:10314000002640F20009C4F2C816C4F24829CAE9B0
:1031500001690020C4F2FA30CAF81400DAF80C5001
:103160000020C4F2401048F20001CAF818002846B6
:10317000C4F23A21CAF810B000F074F910B346F264
:1031800048112846C4F2882100F06CF9C0B34DF212
:103190007B412846C4F28F2100F064F9002800F03A
:1031A0008F804EF266612846C4F2902100F05AF9F1
:1031B000002840F0BF804DF2EC112846C4F2902167
:1031C0008BE000BF4CF28F212846C4F2372100F07B
:1031D00049F900284FF0020640F0858048F65C71FE
:1031E0004846C4F2482100F03DF900287BD143F65F
:1031F00071514846C4F2482100F034F902266FE0CC
:103200004EF248112846C4F2432100F039F9002853
:103210004FF0010667D14DF69A112846C4F2842179
:1032200000F02EF900285ED142F2D7314846C4F2B0
:103230005A2152E05020FDF779FC40F2D440C2F20E
:10324000000070210AAA062364260096FDF74CFFB1
:1032500000287FF473AF9DF9280000283FF56EAF7A
:103260009DF829009DF82A109DF82C309DF82B2000
:10327000000340EA011019029DF82D3062F313415A
:1032800040EA1210CD186421484300F047F94FF08E
:10329000565100F0BFF98146CAF80800C8206843BB
:1032A00000F03CF94FF0565100F0B4F90021CCF297
:1032B000482100F067F80646CAF8040049E700BF55
:1032C00044F2AE713046C4F2E31100F0D9F888BB85
:1032D00046F266614846C4F2562100F0C3F806463D
:1032E000002818BF01268AF80160FFF76DFB002057
:1032F0000021FFF777FB10A041460122FFF78AFD6E
:10330000BAF8025040F6FD008542BFF4AFAE00208F
:103310001421B5F5E16F03D9FFF764FB0DA0AAE610
:10332000FFF760FB40F2DC50854208A005A188BF92
:103330000846A0E60026D6E74D4F4953545552455E
:103340000000000035312D373525000037362D318E
:103350003030250032362D3530250000302D323505
:1033600025000000555247454E43593A00000000E1
:10337000534F4F4E000000004F4B00005552474541
:103380004E54000090EA010F48BF81F0004100F167
:103390001482421A3CBF801A89184FEAD052A2EB1D
:1033A000D1534FF07F4C1CEA410F18BF9CEA026FCB
:1033B00000F03B804FF0004C4CEA00204CEA012129
:1033C00021FA03FC10EB0C0C1ED202F1FF325FEA73
:1033D0001C2040EBC25038BF70471CF07F0F4FEAF3
:1033E000400C18BFBCF17F4F38BF7047C3F12003BA
:1033F000994008BF20F00100BCF17F4F38BF7047F3
:10340000A0F1C04000F0CDB94FEA3C00000A40EB0B
:10341000C25028BF1CF0FF0F4FEA400CE6D018BF87
:10342000BCF17F4F38BF7047EAE79CEA026F05D0D6
:1034300010EA5C0F08BF00F00040704710B500F0C4
:103440006AF900BF64FBBE3E10B500F033F80CBF54
:103450000120002010BD10B500F02CF814BF012091
:10346000002010BD10B500F06DF88CBF01200020C9
:1034700010BD10B500F066F82CBF0120002010BD73
:1034800010B500F093F894BF0120002010BD10B5D6
:1034900000F08CF834BF0120002010BD401058BF50
:1034A000C0F14040491058BFC1F140418142EFF3A3
:1034B0000080704750EA010C00F113801CF5000FEA
:1034C00058BFBCF5000F01D48842704707D710F5EC
:1034D000000F58BF11F5000F15D48842704789427C
:1034E00070471CF5000F04D5BCF5000FF7D58142DD
:1034F00070474FF0807C1CEB400F38BF1CEB410F36
:1035000001D28142704710B500F005F992244900BC
:103510004FF000504FF08051FFF7C0BFB0FA80F37A
:1035200010FA03F2C3F19D030AD0D90501EB122072
:10353000530638BF704700F1010008BF20F00100BA
:103540007047000050EA010C00F113801CF5000FD9
:1035500058BFBCF5000F01D48842704707D710F55B
:10356000000F58BF11F5000F15D4884270478942EB
:1035700070471CF5000F04D5BCF5000FF7D581424C
:1035800070474FF0807C1CEB400F38BF1CEB410FA5
:1035900001D28142704710B500F0BDF89224490075
:1035A0004FF080504FF00051FFF778BF50EA010C08
:1035B00000F113801CF5000F58BFBCF5000F01D4BB
:1035C0008842704707D710F5000F58BF11F5000F5C
:1035D00015D488427047894270471CF5000F04D506
:1035E000BCF5000FF7D5814270474FF0807C1CEB93
:1035F000400F38BF1CEB410F01D28142704710B51C
:1036000000F089F8922449004FF000504FF08051AB
:10361000FFF744BF4FF47F0C1CEAD0121EBF1CEA18
:10362000D11392EA0C0F93EA0C0F00F0478090EA56
:10363000010F48BF42F480724FF0004C4CEA00206A
:103640004CEA012102EB0302A0FB0113A2F50002E8
:10365000002918BF43F001035B0028BF4FEA330382
:1036600042EB22425FEA132C4CEBC2502EBFBCEB64
:10367000436FB2F57C0F70474FEA036CBCF1004F0B
:1036800008BF20F00100B2F57C0F38BF70470BD5A2
:1036900082F0FF0212F5803FC8BF704700F1C040C2
:1036A000D8BF00F00040704700F5000C5FEA4C0CFA
:1036B00048BF7047B0F1C04000F073B80CEAD113B6
:1036C00090EA010F48BF42F48072624538BF6345FB
:1036D00004D280EA010000F00040704710B500F00D
:1036E0001AF800BF8900013E00F007B800F009B8E1
:1036F0005FEA410C5FEA1C6C08D080EA010000F030
:1037000050B85FEA400C5FEA1C6CF6D14FF0004005
:10371000A0F5800070470EF1020E2EF0030E5EF849
:10372000044B244204D44FEA4102B2F17F4F11D836
:103730004FEA4003B3F17F4F0CD80ED14FEAD07C53
:103740000CEB4C0C0CF1020CB2F17F4F08BF4CEBB0
:10375000D17C04E04FF0080C01E04FEAD17C0CEB87
:103760004C0324FA03F404F00704B4F1040C06D269
:103770000EEB840CBDE810404CF0010C6047DFE814
:103780000CF0070802024FF00040A0F5800010BDC9
:103790000846420018BFD2F1807288BF00F0004096
:1037A00010BDFF2141EAD050C005704790EA010FDB
:1037B00048BF81F000413FF5ECAD421A04D882F0D9
:1037C0000042A0EB020011444FEAD052A2EBD153C9
:1037D0004FF07F4C1CEA410F18BF9CEA026F4AD0A1
:1037E0004FF0004C4CEA00204CEA012121FA03FC86
:1037F000B0EB0C0C0FD412F0FE0F36D05FEA4C0089
:103800001DD5001240EBC25038BF70471CF03F0F6F
:1038100018BF70470BE05FEA1C20A2F1010240EBE9
:10382000C25038BF70471CF07F0F18BF7047C3F1FC
:103830002003994014BF401E20F0010070474FEA5A
:103840001223800808BF7047B0FA80FCA2EB0C027C
:10385000CCF1280C60FA0CF093EA122F04BF00EBB5
:10386000C25070474FEAC3707047130A5FEADC101A
:1038700008BF7047F6E79CEA026F04D010EA5C0FBD
:1038800008BF0020704710B5FFF745FF40DFF63E48
:1038900081F00040704700000000000000000102BD
:1038A00003040607080900000000010203040000E9
:1038B0000000000000000000000000000000000008
:1038C00000000000000000000000000000000000F8
:1038D00000000000000C000C000C000C000C000CA0
:1038E000000C000C000C000C000C0000000C000C84
:1038F0000000000000000000001B001B001B001B5C
:10390000001B00000000000000000000000000009C
:103910000000000000000000000000008019801975
:1039200080198019C07FC07F80190033C07FC07F9D
:1039300000330033003300330000000000000000BB
:10394000001E003F807580650074003C001E00076B
:103950008005806580658075003F001E00040004BE
:1039600000000000007000D840D8C0D880D9007393
:103970000006000C801BC036C066C046C00680032F
:103980000000000000000000001E003F0033003374
:103990000033001E000CC03CC06680638061806301
:1039A000C03E801C0000000000000000000C000C65
:1039B000000C000C000C00000000000000000000E3
:1039C0000000000000000000000000000000800077
:1039D00000010003000600060004000C000C000CAF
:1039E000000C000C000C000400060006000300019F
:1039F0008000002000100018000C000C00040006DD
:103A0000000600060006000600060004000C000C7C
:103A10000018001000200000000C002D003F001EC8
:103A20000033000000000000000000000000000063
:103A30000000000000000000000000000000000086
:103A4000000C000C000C000CC0FFC0FF000C000CB0
:103A5000000C000C0000000000000000000000004E
:103A60000000000000000000000000000000000056
:103A70000000000000000000000C000C0004000426
:103A8000000800000000000000000000000000002E
:103A900000000000001E001E0000000000000000EA
:103AA0000000000000000000000000000000000016
:103AB0000000000000000000000000000000000006
:103AC000000C000C000000000000000000030003D8
:103AD00000030006000600060006000C000C000CA7
:103AE000000C001800180018000000000000000082
:103AF000001E003F0033806180618061806D806DB9
:103B00008061806180610033003F001E0000000082
:103B1000000000000006000E001E00360026000611
:103B20000006000600060006000600060006000665
:103B30000000000000000000001E003F8073806154
:103B40008061800100030006000C00180030006056
:103B5000807F807F0000000000000000001C003E0D
:103B6000006300630003000E000E0003800180016B
:103B700080618073003F001E000000000000000014
:103B80000006000E000E001E001E00160036003655
:103B90000066807F807F00060006000600000000AF
:103BA00000000000007F007F006000600060006E89
:103BB000007F80638001800180618073003F001E70
:103BC0000000000000000000001E003F8033806104
:103BD0000060006E007F807380618061806180334F
:103BE000003F001E0000000000000000807F807F7A
:103BF00080010003000300060006000C000C000C0E
:103C00000008001800180018000000000000000064
:103C1000001E003F8063806180610021001E003F24
:103C20008061806180618061003F001E00000000B3
:103C300000000000001E003F007380618061806111
:103C40008073803F801D800180610073003F001EF3
:103C50000000000000000000000000000000000064
:103C6000000C000C0000000000000000000000003C
:103C7000000C000C0000000000000000000000002C
:103C8000000000000000000C000C0000000000001C
:103C900000000000000C000C0004000400080000FC
:103CA00000000000000080008003000E003800606B
:103CB0000038000E800380000000000000000000BB
:103CC000000000000000000000000000807F807FF6
:103CD00000000000807F807F0000000000000000E6
:103CE0000000000000000000000000000000004094
:103CF0000070001C000780010007001C00700040DD
:103D0000000000000000000000000000001F803FD5
:103D1000C071C060C000C00180030007000E000C2D
:103D2000000C0000000C000C00000000000000006F
:103D3000001E003F803180718063806F806D806DD8
:103D4000806F806700600032003E001C00000000B1
:103D500000000000000E000E001B001B001B001BDB
:103D600080318031803F803F8031C060C060C06062
:103D70000000000000000000007C007E0063006383
:103D800000630063007E007E006380618061806369
:103D9000007F007E0000000000000000001E003FC9
:103DA0008031806100600060006000600060006041
:103DB00080618031003F001E000000000000000014
:103DC000007C007F0063806380618061806180612E
:103DD0008061806100630063007E007C0000000061
:103DE00000000000807F807F006000600060006055
:103DF000007F007F0060006000600060807F807F47
:103E00000000000000000000807F807F00600060F4
:103E100000600060007F007F006000600060006064
:103E2000006000600000000000000000001E003F75
:103E30008031806100600060006080638063806129
:103E400080618031803F001E000000000000000003
:103E5000806180618061806180618061807F807F1E
:103E6000806180618061806180618061000000000C
:103E700000000000003F003F000C000C000C000C94
:103E8000000C000C000C000C000C000C003F003F6C
:103E9000000000000000000080018001800180011E
:103EA00080018001800180018001806180618073D8
:103EB000003F001E0000000000000000C0608061A4
:103EC000006300660066006C0078007C0066006697
:103ED000006380618061C06000000000000000009D
:103EE00000600060006000600060006000600060D2
:103EF0000060006000600060807F807F0000000044
:103F000000000000C071C071C07BC07AC06AC06A86
:103F1000C06EC064C060C060C060C060C060C0608F
:103F200000000000000000008071807180798079BD
:103F30008079806D806D806D806580678067806727
:103F4000806380630000000000000000001E003F4E
:103F50000033806180618061806180618061806107
:103F600080610033003F001E0000000000000000E0
:103F7000007E007F80638061806180618063007F5C
:103F8000007E0060006000600060006000000000D3
:103F900000000000001E003F0033806180618061EE
:103FA000806180618061806580670033803F401E52
:103FB0000000000000000000007E007F8063806140
:103FC00080618063007F007E006600630063806123
:103FD0008061C0600000000000000000000E001FB3
:103FE0008031803100300038001E0007800380617E
:103FF00080618031003F001E0000000000000000D2
:10400000C0FFC0FF000C000C000C000C000C000CEA
:10401000000C000C000C000C000C000C0000000058
:10402000000000008061806180618061806180614A
:10403000806180618061806180618073003F001ECB
:104040000000000000000000C060C060C06080315F
:1040500080318031001B001B001B001B000E000E76
:10406000000E00040000000000000000C0C0C0C03E
:10407000C0C0C0C0C0C0C0CC804C804C805E8052EC
:1040800080528073806180610000000000000000A9
:10409000C0C0806080610033003B001E000C000C3B
:1040A000001E001F003B80718061C0C00000000046
:1040B00000000000C0C08061806100330033001E3A
:1040C000001E000C000C000C000C000C000C000C7E
:1040D0000000000000000000803F803F80010003DE
:1040E00000030006000C000C0018001800300060EF
:1040F000807F807F000000000000000F000F000C98
:10410000000C000C000C000C000C000C000C000C4F
:10411000000C000C000C000C000C000F000F000045
:10412000001800180018000C000C000C000C000611
:104130000006000600060003000300030000000064
:104140000000001E001E0006000600060006000615
:10415000000600060006000600060006000600062F
:104160000006001E001E0000000C000C001E0012C5
:104170000033003380618061000000000000000017
:10418000000000000000000000000000000000002F
:10419000000000000000000000000000000000001F
:1041A00000000000000000000000E0FF0000000030
:1041B00000380018000C00000000000000000000A3
:1041C00000000000000000000000000000000000EF
:1041D000000000000000000000000000001F803F01
:1041E00080618001801F803F80618063807FC03854
:1041F000000000000000000000600060006000603F
:10420000006E007F80738061806180618061807357
:10421000007F006E000000000000000000000000B1
:1042200000000000001E003F80738061006000609D
:1042300080618073003F001E00000000000000004D
:104240008001800180018001801D803F807380613A
:104250008061806180618073803F801D000000006C
:10426000000000000000000000000000001E003FF1
:1042700000738061807F807F00608071003F001E3E
:104280000000000000000000C007C00F000C000C80
:10429000807F807F000C000C000C000C000C000CD8
:1042A000000C000C000000000000000000000000F6
:1042B0000000801D803F807380618061806180612B
:1042C0008073803F801D80018063007F003E00007E
:1042D0000060006000600060006F807F807180611E
:1042E0008061806180618061806180610000000088
:1042F000000000000006000600000000003E003E36
:10430000000600060006000600060006000600067D
:104310000000000000000006000600000000003E53
:10432000003E000600060006000600060006000625
:10433000000600060046007E003C000000600060B1
:1043400000600060806100630066006C007C0076A5
:10435000006300638061C060000000000000000096
:10436000003E003E000600060006000600060006AD
:104370000006000600060006000600060000000019
:1043800000000000000000000000000080DDC0FF11
:10439000C0CEC0CCC0CCC0CCC0CCC0CCC0CCC0CCBB
:1043A000000000000000000000000000000000000D
:1043B000006F807F80718061806180618061806139
:1043C000806180610000000000000000000000002B
:1043D00000000000001E003F8073806180618061EA
:1043E00080618073003F001E00000000000000009C
:1043F000000000000000006E007F8073806180611B
:10440000806180618073007F006E006000600060EA
:1044100000600000000000000000801D803F8073ED
:1044200080618061806180618073803F801D800138
:1044300080018001800100000000000000000000F9
:104440000067803F0039003000300030003000301D
:1044500000300030000000000000000000000000FC
:1044600000000000001E803F80610060007F803FF0
:1044700080018061007F001E00000000000000003D
:104480000000000800180018007F007F00180018C6
:104490000018001800180018801F800F000000008E
:1044A000000000000000000000000000806180614A
:1044B000806180618061806180618063807F803DF8
:1044C00000000000000000000000000000000000EC
:1044D000C060803180318031001B001B001B000E4A
:1044E000000E0006000000000000000000000000B8
:1044F0000000000080DD80DD80DD005500550055A6
:104500000077007700220022000000000000000079
:104510000000000000000000806100330033001E36
:10452000000C000C001E003300338061000000000E
:104530000000000000000000000080618061803108
:1045400000330033001B001B001B000E000E000E8A
:10455000001C007C00700000000000000000000053
:10456000C07FC07F800100030006000C00180030EF
:10457000C07FC07F000000000000800380070006AD
:104580000006000600060006000E001C001C000EBF
:1045900000060006000600060006800780030006ED
:1045A00000060006000600060006000600060006DB
:1045B00000060006000600060006000600060006CB
:1045C00000060038003C000C000C000C000C000C35
:1045D000000E00070007000E000C000C000C000C81
:1045E000000C003C0038000000000000000000004B
:1045F000000000008038807F0047000000000000BD
:1046000000000000000000000000000000000000AA
:10461000000000000000000000000000000000108A
:10462000001000100010001000100000001000002A
:104630000000002800280028000000000000000002
:1046400000000000000000240024007C002400483A
:10465000007C004800480000000000380054005072
:1046600000380014005400540038001000000020EE
:1046700000540058003000280054001400080000C6
:1046800000000010002800280010003400480048F6
:1046900000340000000000100010001000000000B6
:1046A00000000000000000000000000800100020D2
:1046B0000020002000200020002000100008002022
:1046C000001000080008000800080008000800109A
:1046D000002000100038001000280000000000003A
:1046E0000000000000000000000000100010007C2E
:1046F000001000100000000000000000000000009A
:104700000000000000000000001000100010000079
:104710000000000000000000003800000000000061
:104720000000000000000000000000000000000089
:104730000010000000000008000800100010001029
:104740000010002000200000000000380044004459
:1047500000540044004400440038000000000010F1
:104760000030005000100010001000100010000079
:10477000000000380044004400040008001000203D
:10478000007C000000000038004400040018000411
:104790000004004400380000000000080018002851
:1047A00000280048007C0008000800000000007C91
:1047B000004000400078000400040044003800007D
:1047C00000000038004400400078004400440044E9
:1047D000003800000000007C0004000800100010F9
:1047E00000200020002000000000003800440044A9
:1047F0000038004400440044003800000000003845
:10480000004400440044003C000400440038000020
:104810000000000000000010000000000000000088
:104820000010000000000000000000000010000068
:104830000000000000100010001000000000000C3C
:10484000003000400030000C0000000000000000BC
:1048500000000000007C0000007C00000000000060
:104860000000000000000060001800040018006054
:1048700000000000000000380044000400080010A0
:104880000010000000100000000000380044004C40
:104890000054005C004000400038000000000010A0
:1048A0000028002800280028007C00440044000064
:1048B00000000078004400440078004400440044B4
:1048C0000078000000000038004400400040004034
:1048D0000040004400380000000000700048004420
:1048E0000044004400440048007000000000007CC8
:1048F00000400040007C004000400040007C000080
:104900000000007C00400040007800400040004073
:104910000040000000000038004400400040005CFF
:1049200000440044003800000000004400440044FB
:10493000007C0044004400440044000000000038B3
:1049400000100010001000100010001000380000CF
:1049500000000004000400040004000400040044FB
:104960000038000000000044004800500060005083
:1049700000480048004400000000004000400040A3
:104980000040004000400040007C00000000004467
:10499000006C006C005400440044004400440000DB
:1049A000000000440064006400540054004C004CBB
:1049B000004400000000003800440044004400446B
:1049C0000044004400380000000000780044004427
:1049D0000044007800400040004000000000003823
:1049E00000440044004400440044005400380004E3
:1049F000000000780044004400440078004800486B
:104A0000004400000000003800440040003000086E
:104A100000040044003800000000007C001000107A
:104A200000100010001000100010000000000044F2
:104A300000440044004400440044004400380000A6
:104A40000000004400440044002800280028001012
:104A500000100000000000440044005400540054C2
:104A6000006C0028002800000000004400280028F6
:104A7000001000100028002800440000000000443E
:104A80000044002800280010001000100010000052
:104A90000000007C0004000800100010002000400E
:104AA000007C000000000018001000100010001032
:104AB000001000100010001000180020002000104E
:104AC0000010001000100008000800000000003076
:104AD0000010001000100010001000100010001056
:104AE00000300010002800280044000000000000F2
:104AF00000000000000000000000000000000000B6
:104B0000000000000000000000FE00200010000077
:104B10000000000000000000000000000000000095
:104B2000000000380044003C0044004C0034000009
:104B3000000000400040005800640044004400644D
:104B40000058000000000000000000380044004051
:104B5000004000440038000000000004000400345D
:104B6000004C00440044004C0034000000000000F1
:104B7000000000380044007C004000440038000081
:104B80000000000C0010007C00100010001000104D
:104B9000001000000000000000000034004C004441
:104BA0000044004C003400040078004000400058ED
:104BB0000064004400440044004400000000001071
:104BC0000000007000100010001000100010000025
:104BD0000000001000000070001000100010001015
:104BE0000010001000E0004000400048005000604D
:104BF0000050004800440000000000700010001049
:104C00000010001000100010001000000000000054
:104C10000000007800540054005400540054000078
:104C200000000000000000580064004400440044FC
:104C30000044000000000000000000380044004470
:104C4000004400440038000000000000000000584C
:104C5000006400440044006400580040004000002C
:104C600000000034004C00440044004C00340004B8
:104C700000040000000000580064004000400040B4
:104C80000040000000000000000000380044003038
:104C900000080044003800000000002000200078D8
:104CA000002000200020002000180000000000006C
:104CB00000000044004400440044004C0034000064
:104CC00000000000000000440044002800280028E4
:104CD00000100000000000000000005400540054C8
:104CE000006C0028002800000000000000000044C4
:104CF0000028001000100028004400000000000000
:104D0000000000440044002800280010001000109B
:104D1000006000000000007C00080010002000403F
:104D2000007C00000000001800100010001000209F
:104D300000200010001000100018001000100010DB
:104D400000100010001000100010001000100030C3
:104D500000100010001000080008001000100010E3
:104D600000300000000000000074004C0000000053
:104D70000000000000000102020304050607080904
:104D80000A0B0C0D0E0F1010A84D0008000000209B
:104D90002000000050010008C84D0008200000203D
:104DA000100B00007001000801000000100000005E
:104DB0000B120000AE380008070A00000A4600087F
:084DC00000127A00000000005F
:04000005080000ED02
:00000001FF
