:020000040800F2
:10000000280B0020B5010008052600085121000832
:1000100001260008050500083D2B0008000000002F
:10002000000000000000000000000000312B00086C
:10003000090500080000000009260008352B00080B
:10004000CF010008CF010008CF010008CF01000850
:10005000CF010008CF010008CF010008CF01000840
:10006000CF010008CF010008CF010008CF01000830
:10007000CF010008CF010008CF010008CF01000820
:10008000CF010008CF010008CF010008CF01000810
:10009000CF010008CF010008CF010008CF01000800
:1000A000CF010008CF010008CF010008CF010008F0
:1000B000CF010008CF010008CF010008CF010008E0
:1000C000CF010008CF010008CF010008CF010008D0
:1000D000CF010008CF010008CF010008CF010008C0
:1000E000CF010008CF010008CF01000800F002F89E
:1000F00000F050F814A696E8000CB244B344DA4578
:1001000001D100F047F8BAE80F000FA696E83000DA
:10011000A5EB040504EB0607AAEB0704A7F101070A
:100120004FEA15154FEA3414A4F10104AC4201D38F
:1001300000F030F813F0010F18BFFB1A43F0010371
:1001400000F001F8DBE71847B0420000D0420000A1
:10015000103A24BF78C878C1FAD8520724BF30C8F3
:1001600030C144BF04680C60704700007047000055
:100170000023002400250026103A28BF78C1FBD8B0
:10018000520728BF30C148BF0B6070471FB51FBD65
:1001900010B510BD00F0D7F81146FFF7F7FF02F0D9
:1001A000CFFC00F0F5F803B4FFF7F2FF03BC00F05A
:1001B000FDF800000948804709480047FEE7FEE7D0
:1001C000FEE7FEE7FEE7FEE7FEE7FEE7FEE7FEE707
:1001D00004480549054A064B70470000392B0008C2
:1001E000ED00000828050020280B0020280700202B
:1001F00028070020032A40F2308010F0030C00F0A2
:10020000158011F8013BBCF1020F624498BF11F850
:1002100001CB00F8013B38BF11F8013BA2F1040209
:1002200098BF00F801CB38BF00F8013B11F0030381
:1002300000F05780083AC0F0088051F8043B083AB3
:1002400051F804CBA0E80810F5E7121D5CBF51F887
:10025000043B40F8043BAFF30080D20724BF11F801
:10026000013B11F801CB48BF11F8012B24BF00F866
:10027000013B00F801CB48BF00F8012B704702F0AA
:10028000FF0343EA032242EA024200F002B84FF0C1
:10029000000200B5134694469646203922BFA0E8D6
:1002A0000C50A0E80C50B1F12001BFF4F7AF0907E2
:1002B00028BFA0E80C5048BF0CC05DF804EB8900D3
:1002C00028BF40F8042B08BF704748BF20F8022B16
:1002D00011F0804F18BF00F8012B7047704770472E
:1002E000704710B5203AC0F00B80B1E81850A0E874
:1002F0001850B1E81850A0E81850203ABFF4F5AFF4
:100300005FEA027C24BFB1E81850A0E8185044BF4F
:1003100018C918C0BDE810405FEA827C24BF51F8BC
:10032000043B40F8043B08BF7047D20728BF31F8B0
:10033000023B48BF11F8012B28BF20F8023B48BF01
:1003400000F8012B7047754600F02CF8AE4605000A
:100350006946534620F00700854618B020B5FFF7E0
:1003600037FFBDE820404FF000064FF000074FF088
:1003700000084FF0000BAC46ACE8C009ACE8C0097F
:10038000ACE8C009ACE8C00921F007018D46704710
:1003900010B50446AFF300802046BDE81040FFF7DB
:1003A00002BF0000004870471800002001491820D3
:1003B000ABBEFEE72600020070470000B0B582B079
:1003C00004460020019021688A68D2074BD18868D2
:1003D00040F00100886040F21000C2F200000068A6
:1003E0004DF68361C4F21B31A0FB0101880C019022
:1003F0000198A0B1019801380190019878B1019855
:1004000001380190019850B101980138019001988C
:1004100028B101980138019001980028EAD100F034
:10042000F3FC21688968C9071CD1054603E000BFB9
:100430008068C00716D100F0E7FC411B2068032943
:10044000F6D38168C907F3D1A06A40F01000A0621A
:10045000E06A40F00100E062002084F824000120FE
:1004600002B0B0BD002002B0B0BD000010B584B035
:1004700040F2D040C2F200007021032264236424C1
:1004800000F07AFDD8B971208DF80F0040F2D0400D
:10049000C2F200000DF10F0270210123009401F05F
:1004A00075F860B940F2D0406424C2F200000DF14A
:1004B0000E0270210123009400F068FE10B10020AC
:1004C00004B010BD9DF80E00000718D440F6BE0021
:1004D000ADF80B0000208DF80D0040F2D0406424F0
:1004E000C2F200000DF10B0270210323009401F011
:1004F0004DF80146002019B90A2000F069FB0120DF
:1005000004B010BDFEE700007047000070B581B078
:100510000022009290F82420012A03D102210846EB
:1005200001B070BD4A680123062A02EB820E80F8F2
:10053000243007D8D0F800C06FF004030CF1340663
:100540000CE000BFD0F800C00C2A87BF0CF12C06CD
:100550006FF040030CF130066FF022030EEB030244
:100560001F23346803FA02F50B6824EA050503FA31
:1005700002F22A433260092B03EB43021AD9DCF85A
:100580000C601E3A072589689540AE43914023F0E0
:1005900001023143102ACCF80C1015D142F200416F
:1005A000C4F201018C4517D0816A41F020018162BB
:1005B00001210AE0DCF81030072689689640B34331
:1005C00091401943CCF810100021002280F824201B
:1005D000084601B070BD00BF89680902F4D4DCF898
:1005E0000810102B41F40001CCF80810ECD140F2B7
:1005F0001001C2F2000109684DF68362C4F21B3299
:10060000A1FB0212910C01EB8101490000910099BC
:100610000029D9D000990139009100990029D3D03F
:1006200000990139009100990029CDD00099013934
:10063000009100990029C7D00099013900910099D3
:1006400000294FF00001E5D1BFE700000068C06C51
:1006500070470000002804BF01207047B0B5044671
:10066000806A28B121688868C0070CD115E000BFF6
:100670000020E06284F82400204600F097F821680A
:100680008868C00709D0886820F00100886000F001
:10069000BBFB21688A68D20726D1A06AC0063AD47B
:1006A000A06A41F2021290430230A062E069D4E9EC
:1006B000013240EA030C531EB3FA83F35D0913467B
:1006C000B2F5807F18BF2B02207D257B01284CEAE4
:1006D00045002CD135B3A56A45F02005A562E56A31
:1006E00045F00105E56222E0054602E08868C007A2
:1006F000D3D000F089FB401B21680328F6D388681B
:10070000C007F3D0A06A40F01000A062E06A40F099
:100710000100E062A06AA06A40F01000A06201201F
:10072000B0BD00BFA56903EB4533A3F5C0534D68C9
:10073000B2F5807F25F4694543EA05034B608B6879
:100740004FF2FD75CFF6E17503EA050343EA0003B6
:100750008B6001D0012A07D122690023CFF6F07304
:1007600003EB025201E000BF0022CB6A23F47003C6
:100770001A43CA62896840F6FE62CFF61F721140C2
:10078000814207D10020E062A16A012262F30101E7
:10079000A162B0BDA06A40F0100020F00200A0628B
:1007A000E06A40F00100E0620120B0BD80B586B093
:1007B000014640F60040C4F20100096800F5C0524D
:1007C00091424FF00001CDE90411CDE9021101D0B1
:1007D00006B080BD41F21801C4F202010A6842F479
:1007E00000720A600A6802F400720192019A0A68B3
:1007F00042F008020A60096801F0080101910199BC
:100800000321CDE9021102A900F0F6F906B080BD7E
:100810002DE9F04182B000270D460446019700F013
:10082000F3FA21688A68D20544D406464868C005B0
:1008300003D4C86A10F4700F46D040F21000C2F220
:100840000000076842F292480220C1F2492801F0F4
:1008500065F8216844F624130A69B7FBF0F0C2F288
:1008600092431A4206D1CA6844F62413C0F2920396
:100870001A425BD00A6912EA080F07D1CA6842F22D
:100880009243C0F249031A4200F0C0800A6949F25B
:100890004923C0F224031A424FF0FC0254D1CF681E
:1008A0001F4208BF5422019B02FB00F7BB4250D3FA
:1008B000C3E000BFA06A40F02000A06284F824706A
:1008C000012002B0BDE8F0810868800700F1B58022
:1008D000681C00F0A880FDB90868800770D508681A
:1008E000800700F1AA800868800769D5086880073A
:1008F00000F1A3800868800762D50868800700F1CE
:100900009C80086880075BD508688007E4D594E080
:100910000868800700F1918000F076FA801B21685A
:10092000A842F5D908688007F2D449E00A6912EABA
:10093000080F4FF0290207D1CB6842F29247C0F26C
:1009400049073B4208BF1422019B02FB00F7BB4250
:1009500073D2681C52D05DBB0198B84230D3019865
:10096000013001900198B84267D20198B84227D36C
:100970000198013001900198B8425ED20198B842C6
:100980001ED30198013001900198B84255D20198C8
:10099000B84215D30198013001900198B842DBD3D9
:1009A0004BE000BF0198013001900198B84235D268
:1009B00000F02AFA801BA842F4D90198B842F1D27B
:1009C000A06A40F00400A062002084F82400032004
:1009D00002B0BDE8F08100BF01980130019001989C
:1009E000B8422AD20198013001900198B84224D22D
:1009F0000198013001900198B8421ED2019801304F
:100A000001900198B842E7D317E000BF5422019B40
:100A100002FB00F7BB429CD30FE000BF21680CE053
:100A20000868800709D40868800706D4086880072A
:100A30005CBF08685FEA8070F2D56FF01200086052
:100A4000A06A40F40070A062886800F46020B0F5ED
:100A5000602F01D1207B18B1002002B0BDE8F081E9
:100A6000A06A20F48070A062A06AC004F4D4A06AD6
:100A700040F00100A062002002B0BDE8F08100005B
:100A800010B5044690F82400012804BF022010BDD0
:100A9000012084F824002046FFF790FC20B10020BC
:100AA00084F82400012010BD42F2044C2068A16AA1
:100AB000C4F2010C40F2013291430CF57F7201F552
:100AC00080719042A16229D0A16A21F48011A162B3
:100AD0004168490504D5A16A012363F30D31A16280
:100AE000A16A0023C9044FF0000144BFE16A21F06C
:100AF0000601E1626FF0020184F824300160816830
:100B000001F46021B1F5602F1BD1904214D08168AF
:100B100041F4A0018160002010BD00BFDCF800108E
:100B200011F4702FD0D0A16A41F48011A162DCF8D9
:100B300000104905CFD4D3E7DCF8001011F4702F72
:100B4000E5D0816841F480118160002010BD000073
:100B5000B0B5044690F82400012804BF0220B0BDBF
:100B60000121206884F824108168C90709D08168B0
:100B700021F00101816000F047F921688968C90707
:100B80000ED1214651F8280F41F2011220EA02024B
:100B9000002042F001020A60002184F82410B0BD58
:100BA000054602E08068C007EBD000F02DF9411B3C
:100BB00020680329F6D38168C907F3D0A06A2146CB
:100BC00040F01000A06251F82C2F0120E1E7000056
:100BD000B0B5044600F018F9054640F20000C2F234
:100BE00000000078611C18BF044400BF00F00CF93D
:100BF000401BA042FAD3B0BD2DE9F04F82B00E6881
:100C0000002E00F0FD8041F20042C4F201020423F4
:100C100040F2004E904208BF03234FF6FF7CC4F21F
:100C2000010E009300240123C1F2100C4FF0000AC2
:100C30004FF000094BE000BF41F20002C4F2010294
:100C4000009F904208BF022704F00C030F229A4035
:100C50002BEA020207FA03F34FEA9A051A4346F811
:100C600025204E6840F20C45F202DEF8082054BF01
:100C700022EA080242EA0802C4F20105CEF808207E
:100C80002A68B30254BF22EA080242EA08022A6034
:100C9000B303DEF8042054BF22EA080242EA080245
:100CA000F303CEF80420DEF800204FF0010354BF18
:100CB00022EA080242EA0802CEF800200E680AF191
:100CC000010A36FA0AF204F1040400F0998003FAEA
:100CD0000AFB16EA0B08F1D04E68664512DC122EAC
:100CE00056D8DFE806F0350B4D4955555555555545
:100CF0005555555555555545510000BFD1F80C90E7
:100D000046E000BF4FF6FF72C1F2210296420FDCAF
:100D10000022C1F2110296421AD00022C1F2120240
:100D2000964215D00022C1F22102964210D02FE047
:100D30000022C1F2220296420AD00022C1F2310200
:100D4000964205D00022C1F23202964220D100BF65
:100D50008A684AB1012A14BFC0F814B0C0F810B0B4
:100D60004FF0080914E000BF4FF0040910E000BF85
:100D7000CA6802F104090BE04FF0000908E000BF67
:100D8000CA6802F1080903E0CA6802F10C0900BF51
:100D900002462646B8F5807F24BF0432203E1768FD
:100DA0000F25B54027EA050509FA06F63543156013
:100DB000CA79D2067FF582AF41F21803C4F202036A
:100DC0001A68AEF57E7642F001021A601A6802F0E7
:100DD00001020192019A2AF0030256F802B040F68D
:100DE0000002C4F20102904208D040F60042C4F270
:100DF000010290427FF420AF012725E7002723E777
:100E000002B0BDE8F08F000040F22450C2F20000B2
:100E100000687047002804BF01207047F0B581B01A
:100E2000044690F83D0028B9002084F83C00204694
:100E300000F09AFC242084F83D002068016821F02D
:100E400001010160016841F400410160016821F481
:100E50000041016000F03EFF636848F2A16CC0F2FF
:100E6000010C40F60011C0F23D0163453CBF48F261
:100E70008041C0F21E01884202D2012001B0F0BDC3
:100E80004DF68361C4F21B31A0FB01122168970C5F
:100E9000D1F804E04FF496762EF03F0545EA9245EE
:100EA0004D60774348F638160D6AC0F24106A7FB3D
:100EB000067625F03F07634538BF960C721C3A430F
:100EC0000A62CA6948F2A0664CF6FF77C0F20106D2
:100ED000B34222EA07020BD801385B00B0FBF3F003
:100EE00001306FF31F30042898BF04201BE000BFBF
:100EF000A768013857B119277B43B0FBF3F00130E5
:100F00006FF31F3070B100F5804007E003EB43033F
:100F1000B0FBF3F001306FF31F3018B100F5004063
:100F200001E000BF01201043C8610868D4E907232D
:100F300020F0C000104318430860886848F2FF3270
:100F400004F10C0790438CCF18431043A6698860C6
:100F5000C86820F0FF0038433043C860086840F09C
:100F60000100086000202021206484F83D102063E7
:100F700084F83E0001B0F0BD2DE9F04F83B01E466D
:100F8000924688460446FFF73FFF94F83D1020291B
:100F900024D12168054600BF886980071AD5FFF76C
:100FA00033FF401B21681A28F6D388698007F3D5E0
:100FB00000202021206384F83D1084F83E00216C3D
:100FC00041F02001216484F83C00022003B0BDE818
:100FD000F08F00BF94F83C00012803D1022003B039
:100FE000BDE8F08F4FF0010984F83C900868C00715
:100FF00003D1086840F0010008600868002720F469
:1010000000600860242084F83D000020CFF6FF70C7
:101010002764E06208F0FE08BAF1010F88BFD146EC
:101020004FF0A00A4FF0200B04E000BF01374F45FE
:1010300000F0A2800868002240F48070086020461A
:101040004FF001113346009501F0E2F821680028C5
:1010500056D1C1F81080FFF7D7FE21684B694A6965
:1010600094F83D50A02D054605D013F0020008BFAE
:1010700012F480601AD084F83DB048690A6880078D
:1010800042F400720A6045D46FF48060486100BF8A
:1010900088698007CAD5FFF7B7FE401B21681A2868
:1010A000F6D388698007F3D54AE000BFB6B100BF28
:1010B000FFF7AAFE401BB04288BF84F83DA021681C
:1010C0004A69486994F83D30A02BD4D012F002024E
:1010D00008BF10F48060EBD0CDE700BFFFF794FEAF
:1010E00084F83DA021684A69486994F83D30A02BF6
:1010F000C1D012F00202BED110F48060EED0BAE787
:101100000868C00544BF4FF400702064032003B09A
:10111000BDE8F08F00200290486902908869029033
:101120000298886901E000BF806980071AD5FFF73F
:101130006BFE411B20681A29F6D381698907F3D514
:1011400000202021206384F83D1084F83E00216CAB
:1011500041F02001216484F83C00012003B0BDE887
:10116000F08F00BF202084F83D00002084F83C0070
:1011700003B0BDE8F08F00BF202084F83D000020C0
:1011800084F83C00012003B0BDE8F08F2DE9F04762
:1011900084B0044600201F46164689460290FFF799
:1011A00033FE94F83D10202924D10546206800BF65
:1011B000816989071AD5FFF727FE411B20681A2984
:1011C000F6D381698907F3D500202021206384F8B4
:1011D0003D1084F83E00216C41F02001216484F828
:1011E0003C00022004B0BDE8F08700BF94F83C103A
:1011F000012903D1022004B0BDE8F087012184F861
:101200003C100168C90703D1016841F00101016088
:101210000168DDF8308021F400610160222184F84A
:101220003D10102184F83E1000212164666267851C
:10123000618D0227C0F201072185A7F10211E16249
:10124000E16A026811F5803F42F48062026018BFD3
:1012500001293DD1016841F48071016020464FF0C1
:10126000011100224346009500F0D2FF50B12068E2
:101270000068C00544BF4FF400702064012004B032
:10128000BDE8F0872069B0F5804F27D149F0010013
:10129000C0B2216842460861204639462B4601F01B
:1012A0009DF80028EAD1208D022861D0012849D07C
:1012B000002840F07380002003902068416903916A
:1012C000816903910399016841F40071016071E043
:1012D0000829BFD0216B1129BCD0BFE7062000EA46
:1012E000D916206806F1F0010161B91D2046424679
:1012F0002B4601F073F80028C0D120685FFA89F10D
:1013000001612046394642462B4601F067F8002825
:10131000B4D1002003902068002241694346039124
:10132000816903910399016841F48071016020464D
:101330004FF00111009500F06BFF002897D146F0A7
:10134000F100A6E72068016821F480610160EFF3F5
:10135000108072B600200390206841690391816972
:1013600003910399016841F40071016062B621E0C4
:101370002068016841F400610160EFF3108072B6EB
:1013800000200390206841690391816903910399CA
:10139000016821F48061016062B60BE02068016899
:1013A00041F48061016000210391416903918069EA
:1013B00003900398208D002800F0CA8040F21009A5
:1013C0004BF2895A0237C2F20009C1F2F84A2326C9
:1013D0000EE000BF10690870606A218D0130606204
:1013E000481E2085618D01396185010400F0B080BF
:1013F00080B203280CD802282CD001284AD12046DC
:1014000041462A4601F056F8002800F09C8035E756
:10141000204641462A4601F04DF800287FF42EAFC1
:101420002068616A00690870606A2268411C208D2A
:10143000616201382085638D013B638553695B07D9
:10144000D3D580B20328C5D1106820F48060106025
:10145000C0E700BF2046394600224346009500F011
:10146000D7FE00287FF40AAFEFF3108072B6206831
:10147000616A026842F40072026000690870606A82
:10148000218D01306062481E2085608D01386085A5
:1014900062B658E02046394600224346009500F0E7
:1014A000B7FE00287FF4EAAE2068016821F480616D
:1014B0000160EFF3108072B62068616A00690870FD
:1014C000606A218D0130013960622185618D0139A9
:1014D0006185D9F80010C908A1FB0A12110A7143ED
:1014E0000291029901390291029900293CD02168A8
:1014F0004A69520717D4029A013A0292029A9AB3A1
:101500004A6952070FD4029A013A0292029A5AB3D8
:101510004A69520707D4029A013A0292029A1AB310
:101520004A695207DDD50A6842F400720A60096907
:101530000170606A218D01306062481E2085608DD7
:101540000138608562B62068616A006943E700BFC0
:10155000202084F83D00002084F83E0084F83C0000
:1015600004B0BDE8F08700BF00202021206384F88C
:101570003D1084F83E00216C41F02001216462B6E8
:1015800084F83C00012004B0BDE8F0872DE9F04369
:1015900083B01E46174689460446FFF735FC94F88B
:1015A0003D10202924D10546206800BF81698907A4
:1015B0001AD5FFF729FC411B20681A29F6D3816947
:1015C0008907F3D500202021206384F83D1084F89A
:1015D0003E00216C41F02001216484F83C0002208F
:1015E00003B0BDE8F08300BF94F83C10012903D19B
:1015F000022003B0BDE8F083012184F83C100168AB
:10160000C90703D1016841F001010160016840F29E
:10161000020821F400610160212184F83D101021AD
:1016200084F83E100021216467626685618DC0F2F6
:1016300001082185A8F10211E162E16A0A9E11F513
:10164000803F18BF01291DD1016841F480710160FC
:1016500020464FF0011100223346009500F0D8FDDE
:1016600050B120680068C00544BF4FF4007020648A
:10167000012003B0BDE8F0832069B0F5804F07D1A9
:10168000FE2015E00829DFD0216B1229DCD0DFE72E
:10169000062000EAD9102168F030086108F106013F
:1016A000204632462B4600F099FE0028E0D1FF206C
:1016B000216800EA090008612046414632462B466F
:1016C00000F08CFE0028D3D10020029020684169F0
:1016D000029180690290029806E000BF20463146E0
:1016E0002A4600F037FD18BB208D68B320463146EE
:1016F0002A4600F027FFD8B9606A2168024612F82E
:10170000013B0B616262628D013A6285228D531E3C
:1017100023854F697F07E1D51B04DFD04378023072
:101720000B616062608D01386085901E2085D5E771
:10173000206C04289CD12068016841F4007101608C
:10174000012003B0BDE8F0832068016841F4007116
:101750000160202084F83D00002084F83E0084F8D9
:101760003C0003B0BDE8F08310B586B0016845F2D7
:101770000040C4F2000081424FF00001CDE90411A5
:10178000CDE9021102D006B010BD00BF41F218042D
:10179000C4F20204216800F5384041F008012160DC
:1017A000216801F0080101910199C02102911221E3
:1017B00003910321059102A9FFF71EFA606840F426
:1017C00000106060606800F400100190019806B09D
:1017D00010BD000040F2000040F22451C2F20000AF
:1017E000C2F2000100780A681044086070470000E7
:1017F00080B542F20000C4F20200016841F010011D
:101800000160032000F07AF80F2000F005F800F0E6
:1018100027F8002080BD000070B540F20006C2F23B
:10182000000640F210013278C2F200014FF47A73E0
:101830000968B3FBF2F20446B1FBF2F1084600F08E
:1018400071FC0F2C4FF0010508D838B94FF0FF306C
:1018500021460022002500F025F87460284670BD5E
:1018600082B041F21800C4F202000168022241F085
:1018700001010160016801F00101019101994168D4
:1018800041F080514160406800F080500090009825
:101890000420C4F20100016862F31A61016002B021
:1018A0007047000010B54EF60C5CCEF2000CDCF870
:1018B0000030C3F3022E8EF00704042C28BF04244A
:1018C000BEF103034FF0FF3E0EFA04F438BF0023CD
:1018D000A14399400EFA03F39A43114300F00F021B
:1018E00000F160430901043A03F5644362440028AF
:1018F00048BF02F10C03197010BD00004EF60C51E8
:10190000CEF200010A684FF6FF031A4060F30A2284
:1019100042F0806040F0FD7008607047012821D0DF
:1019200002280DD0102808D141F20401C4F20201AE
:101930000A6851F8040CC00134D40020704700BF7D
:1019400080B500F0DBF941F20401C4F2020109683C
:101950000222C1F3813102EB4101B0FBF1F0BDE89D
:101960008040704741F20400C4F20200C16940F2B5
:1019700002320A40B2F5817F04BF4FF40040704745
:1019800001F44071B1F5407F18D0B1F5007F1CBF64
:1019900000207047006A49F64041800701EAE07084
:1019A000704700BFC2F3834015A3185CD2030DD467
:1019B00040F60012C0F23D02504313E050F8040C10
:1019C0004FF22441800301EAE07070470A6810A3D7
:1019D000C2F340429A5C41F20023C0F27A03B3FBA7
:1019E000F2F250430968490248BF70474AF6AB21FA
:1019F0004000CAF6AA21A0FB01014808704700BFB9
:101A000002030405060708090A0B0C0D0E0F10103F
:101A1000010200002DE9F04182B00446007841F255
:101A20001C06C007C4F202064AD030685FEAC0084C
:101A300008D4306840F080503060306800F080504A
:101A40000190019847F20007C4F200073868C0050A
:101A500012D4386840F480703860FFF7D5F9054635
:101A60003868C00508D4FFF7CFF9401B6428F7D9C0
:101A7000032002B0BDE8F081706810F4407012D00D
:101A8000616801F4407188420DD0706840F24042B4
:101A9000C4F24222012320F4407113600023C007E6
:101AA0001360716026D17068616820F4407008434B
:101AB000B8F1000F706003D4306820F080503060BF
:101AC0002068810707D556F8181CA26821F4404108
:101AD000114346F8181CC00607D556F8180CE168E3
:101AE00020F48000084346F8180C002002B0BDE83E
:101AF000F08100BFFFF788F9054641F2883700BF43
:101B000070688007CFD4FFF77FF9401BB8424FF0D1
:101B10000300F5D9EAE70000002804BF0120704760
:101B20002DE9F04381B042F20008C4F202080446F5
:101B3000D8F800000D4600F0070081420CD9D8F813
:101B4000000020F007002843C8F80000D8F8000083
:101B500000F00700A8426CD1206841F20409810717
:101B6000C4F2020917D5410705D5D9F8001041F490
:101B7000E061C9F80010010705D5D9F8001041F45B
:101B80006051C9F80010D9F80010A26821F0F001E6
:101B90001143C9F80010C00742D1D8F8000000F086
:101BA000070085420CD2D8F8000020F00700284337
:101BB000C8F80000D8F8000000F00700A84238D1AB
:101BC0002068410707D5D9F80010E26821F4E061E8
:101BD0001143C9F80010000708D5D9F800002169A1
:101BE00020F4605040EAC100C9F80000D9F8002094
:101BF00002F00C00082841F20020C0F27A004DD11A
:101C000044F2DC33C2F38341C0F60003595CD203D3
:101C100038D440F60010C0F23D0048433EE000BF1B
:101C2000606859F8041C022808D0012826D18903CD
:101C300006D4012001B0BDE8F08300BF8901F8D5CA
:101C4000D9F8001021F003010843C9F80000FFF79C
:101C5000DBF8064641F28837D9F80000616800F0E9
:101C60000C00B0EB810F98D0FFF7CEF8801BB84284
:101C7000F2D9032001B0BDE8F08300BF8907D8D5B1
:101C8000DEE700BFD9F8002044F2DA33C2F3404265
:101C9000C0F600039A5C4843B0FBF2F0D9F800109C
:101CA00043F65642C1F30311C0F60002515C40F204
:101CB000100220FA01F140F20400C2F200000068B4
:101CC000C2F200021160FFF7A7FD002001B0BDE8DD
:101CD000F083000040F2100041F20401C2F2000063
:101CE000C4F202010068096843F66642C1F30221AA
:101CF000C0F60002515CC8407047000040F210007E
:101D000041F20401C2F20000C4F202010068096855
:101D100043F66642C1F3C221C0F60002515CC840DE
:101D200070470000002804BF012070472DE9F041F2
:101D300082B00446007841F20006C007C4F20206F1
:101D40000CD0706800F00C00042840F081803068EE
:101D5000800303D56068002800F046812078800762
:101D60001BD5706810F00C0F09D0706800F00C00E3
:101D7000082840F087807068C00300F183803068D5
:101D8000800703D52069012840F02E813068616901
:101D900020F0F80040EAC10030602078000713D43A
:101DA000207840072CD4E569002D00F01881706878
:101DB00000F00C00082840F0A780012D40F00481BD
:101DC000012002B0BDE8F081A069002800F0848005
:101DD0000020C4F242200121C0F88014FFF714F85B
:101DE000054600BF706A800700F1B280FFF70CF86B
:101DF000401B0228F6D9032002B0BDE8F08100BFE5
:101E0000F0695FEAC00808D4F06940F08050F061E2
:101E1000F06900F080500090009847F20007C4F28B
:101E200000073868C00549D4386840F480703860CD
:101E3000FEF7EAFF054600BF3868C0053ED4FEF74E
:101E4000E3FF401B6428F7D9032002B0BDE8F0810E
:101E5000706800F00C00082803D17068C0033FF5DB
:101E600076AF61683068002900F00C81B1F5A02FD1
:101E700000F00081B1F5803F40F01A8140F48030DD
:101E80001CE100BF2069002840F20000C4F242209B
:101E900000F0888001210160FEF7B6FF054600BF13
:101EA000306880073FF572AFFEF7AEFF401B022897
:101EB000F6D9032002B0BDE8F08100BFE168306AC6
:101EC000002900F09D80052900F09280012940F052
:101ED000AF8040F00100B1E00020C4F242200021B8
:101EE000C0F88014FEF790FF054600BF706A8007B7
:101EF0007FF556AFFEF788FF401B0228F6D9032076
:101F000002B0BDE8F08100BF0027C4F242270020E4
:101F10003866FEF779FF022D05460DD13068800145
:101F200040F1DE80FEF770FF401B02284FF00300F7
:101F3000F4D902B0BDE8F081306880014FD5FEF7DA
:101F400063FF401B02284FF00300F5D9F1E700BF03
:101F500040F21000C2F20000006844F6D351C1F212
:101F60006201A0FB0101480A019000BF00BF019877
:101F7000411E002801913FF413AF00BF0198411E9C
:101F8000002801913FF40CAF00BF0198411E0028CA
:101F900001913FF405AF00BF0198411E0028019157
:101FA000E4D1FDE600210160FEF72EFF054600BFEB
:101FB000306880077FF5F1AEFEF726FF401B022850
:101FC0004FF00300F4D9B4E77068216A00F480325E
:101FD0008A4209D1616A00F47010884204D100205D
:101FE00002B0BDE8F08100BF012002B0BDE8F08181
:101FF00040F004003062306A40F001001EE000BF93
:1020000020F001003062306A20F004003062FEF7F8
:10201000FBFE054641F28837306A800720D5FEF77F
:10202000F3FE401BB8424FF00300F5D981E700BF33
:1020300020F001003062306A20F004003062FEF7C8
:10204000E3FE054641F28837306A800708D4FEF780
:10205000DBFE401BB842F7D9032002B0BDE8F08197
:10206000B8F1000F3FF59FAEF06920F08050F061AD
:1020700099E600BF40F480203060306840F4803042
:102080001CE000BF20F480303060306820F48020F5
:102090003060FEF7B9FE0546306880037FF55EAE1E
:1020A000FEF7B2FE401B64284FF00300F4D940E76E
:1020B00020F480303060306820F480203060FEF7FB
:1020C000A3FE0546306880033FF548AEFEF79CFE50
:1020D000401B6428F6D9032002B0BDE8F08100BFA0
:1020E000206AB0F5803F05D17168A26821F4003103
:1020F000114371607168626A21F4741111430843DD
:10210000706001203866FEF77FFE0446306880016B
:102110003FF565AFFEF778FE001B02284FF0030085
:10212000F4D906E7411E0020B0EB116F1CBF01205F
:1021300070474EF21002CEF2000251604EF623516B
:10214000CEF20001F0230B70072190601160704700
:10215000FEE7000070B50368044653F8140F40070B
:1021600011D40E46481C29D086BB00BF1868400514
:1021700027D4FEF749FE236853F8140F400737D5DC
:1021800018684007F2D5002070BD00BF18684007EE
:10219000F9D41868400514D418684007F3D41868B7
:1021A00040050ED418684007EDD41868400508D4DF
:1021B000186840074FF0000048BF70BD1868400520
:1021C000E4D56FF480601860042012E0154603E047
:1021D00053F8140F4007D6D418684005F1D4FEF721
:1021E00013FE401B2368B042F2D958694007EFD470
:1021F000202000212022216384F83D2084F83E1015
:10220000226C10432064012084F83C1070BD000053
:102210002DE9F041054600681E46144601F47F0290
:1022200001338FB242D0DDF81880B2F5803F40F024
:10223000878040693840C01BB0FA80F04009844272
:1022400040F0C8804EB924E040693840C01BB0FA65
:1022500080F04009844240F0BD80FEF7D5FDA0EB40
:1022600008012868B142EFD941693940C91BB1FA68
:1022700081F149098C42E7D19BE000BF40693840B9
:10228000C01BB0FA80F0400984424FF0000040F0DB
:10229000A280FEF7B9FD286841693940C91BB1FA2F
:1022A00081F149098C42E9D183E000BFB2F5803F5A
:1022B00024D100BF41693940C91BB1FA81F14909F4
:1022C0008C4240F0878041693940C91BB1FA81F1E5
:1022D00049098C4240F07E8041693940C91BB1FAFE
:1022E00081F149098C4275D141693940C91BB1FA64
:1022F00081F149098C42DDD06CE000BF8169394031
:10230000C91BB1FA81F149098C4263D18169394015
:10231000C91BB1FA81F149098C425BD1816939400D
:10232000C91BB1FA81F149098C4253D18169394005
:10233000C91BB1FA81F149098C42DFD04AE000BFE4
:1023400080693840C01BB0FA80F04009844241D116
:1023500046B923E080693840C01BB0FA80F04009DC
:10236000844237D1FEF750FDA0EB08012868B14246
:10237000F0D981693940C91BB1FA81F149098C4210
:10238000E8D116E080693840C01BB0FA80F04009FF
:1023900084424FF0000018BFBDE8F081FEF734FD25
:1023A000286881693940C91BB1FA81F149098C4219
:1023B000E8D100202021286385F83D1085F83E00F3
:1023C000296C41F02001296485F83C000120BDE81A
:1023D000F08100BF0020BDE8F0810000F0B581B0C1
:1023E000044600681D4643698FB203EA0701B942FB
:1023F00002D1002001B0F0BD4169164601323CD047
:10240000490512D47EB300BFFEF7FEFC411B2068D5
:10241000B14203D941693940B9422BD141693940B0
:10242000B942E6D041694905EED5016841F4007131
:1024300001606FF48061416104200021202221634A
:1024400084F83D2084F83E10226C1043206484F808
:102450003C10012001B0F0BD41693940B942C8D0FB
:1024600041694905E1D4FEF7CFFC20684169394054
:10247000B942F1D02020E0E741694905D5D441694E
:102480003940B942B5D041694905CED44169394096
:10249000B942AED041694905C7D441693940B94212
:1024A000A7D041694905C0D441693940B942E3D157
:1024B0009FE7000070B504460068154650F8143FC9
:1024C0005A063DD40E4629B926E000BF50F8141F25
:1024D000490635D40168C90621D4FEF795FC411B95
:1024E0002068B142F2D941694906EFD40020202189
:1024F000206384F83D1084F83E00206C40F02000FA
:1025000018E000BFFEF780FC206850F8141F490651
:10251000ECD50168490613D40168C906F2D56FF0FD
:102520001001016000202021206384F83D1084F810
:102530003E00206C2064002084F83C00012070BD27
:10254000002070BD70B50368044653F8140F0006F0
:1025500011D40E46481C29D086BB00BF1868400520
:1025600027D4FEF751FC236853F8140F000637D523
:1025700018680006F2D5002070BD00BF186800067C
:10258000F9D41868400514D418680006F3D4186804
:1025900040050ED418680006EDD41868400508D42C
:1025A000186800064FF0000048BF70BD186840056D
:1025B000E4D56FF480601860042012E0154603E053
:1025C00053F8140F0006D6D418684005F1D4FEF76E
:1025D0001BFC401B2368B042F2D958690006EFD4B7
:1025E000202000212022216384F83D2084F83E1021
:1025F000226C10432064012084F83C1070BD000060
:10260000FEE70000FEE700007047000080B50246CC
:10261000002840F2D000C2F200004FF4806118BFE1
:10262000FF22FDF72CFE80BD40F27802C2F20002CC
:1026300050809180704700002DE9F04182B040F257
:10264000D040C2F200007821012244F62063FEF758
:1026500093FC4FF0000418B1204602B0BDE8F081B1
:1026600040F2D0454FF42E40C2F20005ADF806000E
:102670000A260DF106022846782102230096FEF76D
:1026800085FF4FF400580DF10602284678210223F9
:10269000ADF806800096FEF779FF4FF480570DF1F4
:1026A0000602284678210223ADF806700096FEF750
:1026B0006DFF4FF43040ADF806000DF106022846DC
:1026C000782102230096FEF761FF4FF44840ADF8F1
:1026D00006000DF106022846782102230096FEF737
:1026E00055FF0DF10602284678210223ADF8064079
:1026F0000096FEF74BFF0DF10602284678210223D3
:10270000ADF806700096FEF741FF4FF48040ADF83B
:1027100006000DF106022846782102230096FEF7F6
:1027200035FF4FF40140ADF806000DF106022846D2
:10273000782102230096FEF729FF4FF47F40ADF881
:1027400006000DF106022846782102230096FEF7C6
:102750001DFF4FF42140ADF806000DF1060228469A
:10276000782102230096FEF711FF4FF42640ADF8C2
:1027700006000DF106022846782102230096FEF796
:1027800005FF4FF42840ADF806000DF1060228467B
:10279000782102230096FEF7F9FE4FF47C50ADF845
:1027A00006000DF106022846782102230096FEF766
:1027B000EDFE4FF42440ADF806000DF10602284668
:1027C000782102230096FEF7E1FE4FF45340ADF866
:1027D00006000DF106022846782102230096FEF736
:1027E000D5FE0DF10602284678210223ADF80640F9
:1027F0000096FEF7CBFE4FF45540ADF806000DF104
:1028000006022846782102230096FEF7BFFE4FF409
:102810007040ADF806000DF106022846782102232B
:102820000096FEF7B3FE4FF45940ADF806000DF1E7
:1028300006022846782102230096FEF7A7FE4FF4F1
:102840000850ADF806000DF1060228467821022353
:102850000096FEF79BFE4FF45A40ADF806000DF1CE
:1028600006022846782102230096FEF78FFE4FF4D9
:102870009050ADF806000DF106022846782102239B
:102880000096FEF783FE4FF45B40ADF806000DF1B5
:1028900006022846782102230096FEF777FE0DF106
:1028A0000602284678210223ADF806800096FEF73E
:1028B0006DFE4FF40D40ADF806000DF106022846FE
:1028C000782102230096FEF761FE4FF4A050ADF888
:1028D00006000DF106022846782102230096FEF735
:1028E00055FE4FF42F40ADF806000DF106022846C4
:1028F000782102230096FEF749FE4FF43850ADF8D8
:1029000006000DF106022846782102230096FEF704
:102910003DFE40F2D000C2F200004FF48061FDF7AE
:10292000B6FC00F0B5F840F27800C2F20000C0F842
:1029300002400124204602B0BDE8F0812DE9F04FAD
:1029400089B040F27805C2F200056B8891F80080EA
:1029500008EB03077F2F05D89C46AB884E78F71805
:102960003F2F03D9002009B0BDE8F08F002E009062
:1029700066D02D782038B5FA85F77C09B2FA82F74F
:10298000029078090790002D18BF01254868121B96
:10299000B2FA82F201900027500944460895069049
:1029A000CDE9033104E000BF00240137B74247D22C
:1029B000002CF9D0DA1995B23F2DF6D80298019B78
:1029C000704303EB400030F817A002F0070001232A
:1029D00003FA00F54FF4607091F8008000EA021BE2
:1029E0006FEA050E0022059703E000BF0132424561
:1029F00020D20CEB02061FFA86F9B9F17F0FF5D849
:102A000046EA0B0640F2D0000AFA02F1B6B2C2F270
:102A100000000904835D0699DDE9077458BF87EA61
:102A2000040103EA0E04002918BF43EA0504845593
:102A3000DCE700BF0499039B4E78059F4446B4E74A
:102A40005FFA88F040F278016044C2F200014880E9
:102A50005DF8240BBDE8F08F0378002B04BF002045
:102A6000704770B514460D46461C00BFD8B22946C3
:102A70002246FFF763FF16F8011C884204D116F8BE
:102A8000013B002BF2D10021BDE8704008467047A1
:102A90002DE9F04FC1B00DF1040B40F2D0460BF11F
:102AA00001094FF000086FF07F050A24C2F200060A
:102AB0004FF0000A40F2D0008035C2F200002F181B
:102AC0004AF0B0008DF80500304678215A460223BE
:102AD0008DF804800094FEF759FD304678215A465F
:102AE0000223ADF804800094FEF750FD4FF48050AF
:102AF000ADF80400304678215A4602230094FEF7D0
:102B000045FD40208DF80400484639468022FDF7F7
:102B100071FB304678215A4681230094FEF736FD3A
:102B2000B5F5607F0AF1010AC4D141B0BDE8F08F6C
:102B300070470000FEF74EBE70470000FEE7000041
:102B400096B0FEF755FE0CAC201D2421FDF79FFB2F
:102B500002200C900120109010200025119020469A
:102B60000695CDE904551395FFF7DCF820B1EFF396
:102B7000108072B6FEE700BF0F20CDE9070507A859
:102B80000021CDE909550B95FEF7C6FF20B1EFF303
:102B9000108072B6FEE700BF02200390002403A855
:102BA0000594FEF737FF28B1EFF3108072B600BF2F
:102BB000FEE700BF41F21800C4F20200016845F2CE
:102BC000004541F0080101600168C4F2000501F010
:102BD00008010C910C9901684FF4804241F0040106
:102BE0000160006841F6802100F004000C900C9810
:102BF00040F2D040C2F20000C0F20601C0E900512C
:102C0000C0E90244C0E90424C0E906440462FEF7B6
:102C100001F928B1EFF3108072B600BFFEE700BFE4
:102C200040F2800BC2F2000B05F55041584640F8C7
:102C3000201F00244FF46021012504730475C16135
:102C4000C0E901440561FDF705FD28B1EFF31080EF
:102C500072B600BFFEE700BF09200BF12008CDE9E6
:102C60000C050CA940460E94FDF750FC20B1EFF383
:102C7000108072B6FEE700BFFFF7DEFCFDF7F6FB43
:102C80008BF8000040F2D040C2F20000462103223F
:102C900064236424FEF770F9002600284FF000003A
:102CA00014D110208DF8300040F2D040C2F2000064
:102CB0000CAA462101230094FEF768FC10B1002005
:102CC00004E000BFB420FDF783FF01208BF8010072
:102CD0000020C4F2FA30002200230021CBE90406D0
:102CE0000CA840F2080AC4F2C812C4F24823C4F285
:102CF0004011A0F1010907ADC2F2000ACBE902239D
:102D0000CBF81810CDF8088033E000BF3020ADF8C4
:102D10001C00284651460122FFF79EFE44F2F23085
:102D2000C0F6000051460122FFF796FE0020302138
:102D3000FFF77AFC0FF62C0051460122FFF78CFEBC
:102D40009BF802100FF62C0001290FF6200208BF95
:102D5000104600290FF6240108BF084651460122FB
:102D6000FFF77AFEFFF794FE4FF4FA70FDF730FF9D
:102D700064244046FDF784FE00286DD09BF80000D7
:102D8000002800F098808DF81E6040F2D04643F293
:102D9000AC30C2F20006ADF81C00304670212A4665
:102DA00003230094FEF7F2FBD0BB5020FDF710FF89
:102DB000304670210CAA06230094FEF7E7F978BB91
:102DC0009DF9300000282BD49DF831009DF8321079
:102DD0009DF833209DF83430000340EA011040EAAA
:102DE000121019029DF8353062F313416043CF1879
:102DF00000F074FD4FF0565100F0ECFDCBF80C00E4
:102E0000C820784300F06AFD4FF0565100F0E2FD13
:102E10000021CCF2482100F0B7FBCBF8080000BF3E
:102E20000CAA9BF8010000286ED0304646210223F0
:102E30000094FEF7ABF900287DD1BDF8300000BA50
:102E4000000C00F04BFD49F69A11C3F6997100F0A1
:102E500033FCCBF810006EE040464FF47A71FDF77A
:102E6000D7FC00BB4046FDF7F1FB81B2ABF8040094
:102E700040F6FC00814240F20000C4F2481010D835
:102E80000020B1F5E16FC4F216200AD840F2DC5000
:102E9000814240F20000C4F2AF2084BF0020C4F29F
:102EA0007A20CBF81C004046FDF752FE9BF800004C
:102EB00000287FF468AF40F2D046C2F200063046E8
:102EC000702103226423FEF757F8A8B971208DF80A
:102ED0001C00304670212A4601230094FEF756FB61
:102EE00050B93046702103AA01230094FEF74EF931
:102EF000002800F0FF8200BF00270CAA8BF80070AA
:102F00009BF80100002890D130464621032264231B
:102F1000FEF732F860B910208DF8300030464621B7
:102F20000CAA01230094FEF731FB002800F0DC829C
:102F300000208BF80100DBE90274DBF81080DBF87D
:102F40001CB048F200015846C4F23A2100F08CFB54
:102F500010B346F248115846C4F2882100F084FBB1
:102F600040B34DF27B415846C4F28F2100F07CFB08
:102F700000284DD04EF266615846C4F2902100F010
:102F800073FBDDF8088000287AD14DF2EC11584629
:102F9000C4F290214BE000BF4CF28F215846C4F29E
:102FA000372100F061FB18B34CF200014046C4F237
:102FB0003E3148E04EF248115846C4F2432100F039
:102FC00053FBD8B34DF69A115846C4F2842100F051
:102FD00059FB002840F0868242F2D7312046C4F2E5
:102FE0005A2100F041FB002818BF012032E000BF49
:102FF00048F65C712046C4F2482100F035FB40F2EF
:10300000800BC2F2000B58B3DDF8088002203CE0D0
:1030100044F2AE713846C4F2E31100F033FBDDF840
:10302000088068BB46F266612046C4F2562100F073
:103030001BFB002818BF012023E000BF42F23471BF
:103040004046C4F2745100F00FFB00284FF001001D
:1030500018BF022040F2800BDDF8088013E000BFAB
:1030600043F671512046C4F2482100F0FDFA0028D1
:103070004FF0020018BF0120DDF8088005E000BF16
:10308000002040F2800BC2F2000B8BF802000020FF
:10309000FFF7BCFA00200021FFF7C6FA0FF28C40C0
:1030A00051460122FFF7D8FCDBF8087000213846B2
:1030B00000F0E1FA002869D144F2EE30C0F60000D9
:1030C00051460122FFF7C8FC4FF07C50394600F012
:1030D0004DFD00F0E7FB002861D0002101230CAE7C
:1030E0004CF6CD4C41F69A1541F27B4E1A4683B20E
:1030F00003FB0CF7FF0C07EB8704A0EB440040F048
:103100003004C8B20A2B345457D307FB05F4240CFF
:1031100004EB8404A7EB440747F030073044642BEA
:10312000477047D39F0807FB0EF77F0C07FB05F49A
:10313000240C04EB8404A7EB440747F03007B3F5F5
:103140007A7F877038D3DF0842F2C50467433F0DAA
:1031500067247C43A40A04EB8404A7EB440747F0EC
:103160003007C770180940F24734604342F21074C8
:10317000C00C0431A34202F10403B7D203320806A3
:103180004FF0000607AD1ED12DE000BF38464FF0CE
:103190007C5100F0F9F900F085FB00289DD130202A
:1031A000ADF81C00284651460122FFF755FC0026C9
:1031B00019E000BF013200E00232012108064FF0A1
:1031C000000607AD0FD0D0B219F80010441E8DF8DC
:1031D0001C102846514601228DF81D60FFF73CFC6B
:1031E000002C2046F0D144F2F030C0F600005146E9
:1031F0000122FFF731FC00200C21FFF715FACCA0CB
:1032000051460122FFF728FCDBF80C7000213846FC
:1032100000F03FFA0021002818BF00273846C4F20A
:10322000C82100F021FA00281CBF0027C4F2C827DB
:1032300038464FF07C5100F0A7F900F033FB00282E
:1032400058D0002101230CAE4CF6CD4C41F69A1516
:1032500041F27B4E1A4683B203FB0CF7FF0C07EBDF
:103260008704A0EB440040F03004C8B20A2B345469
:103270004DD307FB05F4240C04EB8404A7EB4407AF
:1032800047F030073044642B47703DD39F0807FB5D
:103290000EF77F0C07FB05F4240C04EB8404A7EB6A
:1032A000440747F03007B3F57A7F87702ED3DF08E5
:1032B00042F2C50467433F0D67247C43A40A04EB34
:1032C0008404A7EB440747F03007C770180940F2A1
:1032D0004734604342F21074C00C0431A34202F13F
:1032E0000403B7D2033208064FF0000607AD14D12D
:1032F00023E000BF3020ADF81C00284651460122D3
:10330000FFF7AAFB19E000BF013200E00232012101
:1033100008064FF0000607AD0FD0D0B219F8001024
:10332000441E8DF81C102846514601228DF81D6060
:10333000FFF792FB002C2046F0D144F2EC30C0F6AF
:10334000000051460122FFF787FB00201821FFF7FC
:103350006BF978A051460122FFF77EFBDBF81C7069
:1033600000213846C4F2C81100F08CF9002873A07F
:1033700013D100213846C4F2482100F083F9002817
:1033800070A00AD100213846C4F2962100F06CF9F1
:10339000002870A06DA118BF084651460122FFF712
:1033A0005BFB00202421FFF73FF96CA0514601226E
:1033B000FFF752FBDBF810700021384600F069F986
:1033C0004FF60071002818BF00273846C4F27F71FD
:1033D00000F04AF900281CBF4FF60077C4F27F774F
:1033E00038464FF07C5100F0CFF800F05BFA00282F
:1033F0003FF48CAC002101230CAE4CF6CD4C41F6D1
:103400009A1541F27B4E00BF1A4683B203FB0CF7BC
:10341000FF0C07EB8704A0EB440040F03004C8B277
:103420000A2B345443D307FB05F4240C04EB840427
:10343000A7EB440747F030073044642B477033D381
:103440009F0807FB0EF77F0C07FB05F4240C04EB29
:103450008404A7EB440747F03007B3F57A7F877001
:1034600024D3DF0842F2C50467433F0D67247C4341
:10347000A40A04EB8404A7EB440747F03007C770A5
:10348000180940F24734604342F21074C00C043112
:10349000A34202F10403B7D2033208064FF000063C
:1034A00007AD0BD1FFF73ABC013200E00232012137
:1034B00008064FF0000607AD3FF430ACD0B200BFB5
:1034C00019F80010441E8DF81C10284651460122A0
:1034D0008DF81D60FFF7C0FA002C2046F0D1FFF7F1
:1034E0001DBC00BF0120B5E5B420FDF771FB012034
:1034F0001FE500BF9DF80C000CAA000714D440F68D
:10350000BE00ADF8300000273046702103238DF84F
:1035100032700094FEF73AF80CAA00287FF4EEAC63
:103520000A20FDF755FB0CAA0127E7E4543A0000F6
:10353000483A00004D4F4953543A0000302D32357F
:103540002500000032362D353025000037362D316C
:103550003030250035312D37352500004C4947489E
:10356000543A00005552473A00000000534F4F4E66
:1035700000000000555247454E5400004E4F542065
:10358000555247454E54000090EA010F48BF81F064
:10359000004100F1F282421A3CBF801A89184FEABA
:1035A000D052A2EBD1534FF07F4C1CEA410F18BF11
:1035B0009CEA026F00F03B804FF0004C4CEA002088
:1035C0004CEA012121FA03FC10EB0C0C1ED202F193
:1035D000FF325FEA1C2040EBC25038BF70471CF03E
:1035E0007F0F4FEA400C18BFBCF17F4F38BF7047C8
:1035F000C3F12003994008BF20F00100BCF17F4FC8
:1036000038BF7047A0F1C04000F0ABBA4FEA3C00B1
:10361000000A40EBC25028BF1CF0FF0F4FEA400CDD
:10362000E6D018BFBCF17F4F38BF7047EAE79CEA8D
:10363000026F05D010EA5C0F08BF00F00040704731
:1036400010B500F048FA00BF64FBBE3E10B500F0B4
:10365000F5F80CBF0120002010BD10B500F0EEF809
:1036600014BF0120002010BD10B500F04BF98CBF35
:103670000120002010BD10B500F044F92CBF01203E
:10368000002010BD10B500F071F994BF012000209A
:1036900010BD10B500F06AF934BF0120002010BD44
:1036A000401058BFC0F14040491058BFC1F14041DF
:1036B0008142EFF3008070474FF47F0C1CEAD01278
:1036C0001EBF1CEAD11392EA0C0F93EA0C0F00F014
:1036D000858090EA010F48BF42F4807240F4000CEC
:1036E00041F400002CF07F4120F07F4000B5A2EBB8
:1036F000030281420FF2081CACEB504E9EF800E032
:10370000C0F100004FEA4E0E00FB0EFC38BF49002E
:103710004FEA2C1C0CFB0EF34FEACE1E0EEB635E41
:103720004FEA112C0EFB0CFC4FEAC1214FEA1C534F
:1037300000FB031102F5FA024FEA112C0EFB0CFC00
:103740004FEA01314FEADC4C00FB0C1142EB224204
:10375000C14228BF09184CEB03335DF804EB10EBB2
:10376000410143EBC250B2F57C0F38BF704729D5F9
:1037700012F0F00F1CBF00F1C04000F00040704795
:10378000008182838485868788898B8C8D8E8F913A
:103790009293959697999A9C9D9FA0A2A3A5A7A85E
:1037A000AAACAEB0B2B3B5B7B9BCBEC0C2C5C7C98A
:1037B000CCCED1D4D7D9DCDFE2E6E9ECF0F3F7FAEE
:1037C000FE0000004FEA400C0CF1807CBCF17E4F03
:1037D00028BF7047B0F1C04000F0C3B90CEAD11364
:1037E00090EA010F48BF42F48072624538BF6345DA
:1037F00007D213F47F0F16D080EA010000F00040DA
:10380000704710B500F067F9097EFC3E00F005B87E
:1038100080EA010000F00040704780EA010000F0FB
:10382000004000F09EB912F47F0F04BF02487047B9
:1038300080EA010000F095B90000C07F50EA010C59
:1038400000F113801CF5000F58BFBCF5000F01D428
:103850008842704707D710F5000F58BF11F5000FC9
:1038600015D488427047894270471CF5000F04D573
:10387000BCF5000FF7D5814270474FF0807C1CEB00
:10388000400F38BF1CEB410F01D28142704710B589
:1038900000F021F9922449004FF000504FF0805180
:1038A000FFF7FEBE41000B0ED3F19E0208D950F483
:1038B00000034FEA032323FA02F048BF4042704757
:1038C00010B500F008F900BF49922480002070472D
:1038D0006FF0004282EA200070470000B0FA80F3E7
:1038E00010FA03F2C3F19D030AD0D90501EB1220AF
:1038F000530638BF704700F1010008BF20F00100F7
:103900007047000050EA010C00F113801CF5000F15
:1039100058BFBCF5000F01D48842704707D710F597
:10392000000F58BF11F5000F15D488427047894227
:1039300070471CF5000F04D5BCF5000FF7D5814288
:1039400070474FF0807C1CEB400F38BF1CEB410FE1
:1039500001D28142704710B500F0BDF892244900B1
:103960004FF080504FF00051FFF79ABE50EA010C23
:1039700000F113801CF5000F58BFBCF5000F01D4F7
:103980008842704707D710F5000F58BF11F5000F98
:1039900015D488427047894270471CF5000F04D542
:1039A000BCF5000FF7D5814270474FF0807C1CEBCF
:1039B000400F38BF1CEB410F01D28142704710B558
:1039C00000F089F8922449004FF000504FF08051E8
:1039D000FFF766BE4FF47F0C1CEAD0121EBF1CEA34
:1039E000D11392EA0C0F93EA0C0F00F0478090EA93
:1039F000010F48BF42F480724FF0004C4CEA0020A7
:103A00004CEA012102EB0302A0FB0113A2F5000224
:103A1000002918BF43F001035B0028BF4FEA3303BE
:103A200042EB22425FEA132C4CEBC2502EBFBCEBA0
:103A3000436FB2F57C0F70474FEA036CBCF1004F47
:103A400008BF20F00100B2F57C0F38BF70470BD5DE
:103A500082F0FF0212F5803FC8BF704700F1C040FE
:103A6000D8BF00F00040704700F5000C5FEA4C0C36
:103A700048BF7047B0F1C04000F073B80CEAD113F2
:103A800090EA010F48BF42F48072624538BF634537
:103A900004D280EA010000F00040704710B500F049
:103AA0001AF800BF8900013E00F007B800F009B81D
:103AB0005FEA410C5FEA1C6C08D080EA010000F06C
:103AC00050B85FEA400C5FEA1C6CF6D14FF0004042
:103AD000A0F5800070470EF1020E2EF0030E5EF886
:103AE000044B244204D44FEA4102B2F17F4F11D873
:103AF0004FEA4003B3F17F4F0CD80ED14FEAD07C90
:103B00000CEB4C0C0CF1020CB2F17F4F08BF4CEBEC
:103B1000D17C04E04FF0080C01E04FEAD17C0CEBC3
:103B20004C0324FA03F404F00704B4F1040C06D2A5
:103B30000EEB840CBDE810404CF0010C6047DFE850
:103B40000CF0070802024FF00040A0F5800010BD05
:103B50000846420018BFD2F1807288BF00F00040D2
:103B600010BDFF2141EAD050C005704790EA010F17
:103B700048BF81F000413FF50EAD421A04D882F0F3
:103B80000042A0EB020011444FEAD052A2EBD15305
:103B90004FF07F4C1CEA410F18BF9CEA026F4AD0DD
:103BA0004FF0004C4CEA00204CEA012121FA03FCC2
:103BB000B0EB0C0C0FD412F0FE0F36D05FEA4C00C5
:103BC0001DD5001240EBC25038BF70471CF03F0FAC
:103BD00018BF70470BE05FEA1C20A2F1010240EB26
:103BE000C25038BF70471CF07F0F18BF7047C3F139
:103BF0002003994014BF401E20F0010070474FEA97
:103C00001223800808BF7047B0FA80FCA2EB0C02B8
:103C1000CCF1280C60FA0CF093EA122F04BF00EBF1
:103C2000C25070474FEAC3707047130A5FEADC1056
:103C300008BF7047F6E79CEA026F04D010EA5C0FF9
:103C400008BF0020704710B5FFF745FF40DFF63E84
:103C500081F00040704700000000000000000102F9
:103C60000304060708090000000001020304000025
:103C70000000000000000000000000000000000044
:103C800000000010001000100010001000100000D4
:103C9000001000000000002800280028000000009C
:103CA0000000000000000000000000240024007C50
:103CB00000240048007C0048004800000000003854
:103CC0000054005000380014005400540038001014
:103CD0000000002000540058003000280054001458
:103CE0000008000000000010002800280010003428
:103CF00000480048003400000000001000100010D0
:103D000000000000000000000000000000000008AB
:103D100000100020002000200020002000200010C3
:103D20000008002000100008000800080008000833
:103D300000080010002000100038001000280000CB
:103D40000000000000000000000000000000001063
:103D50000010007C001000100000000000000000B7
:103D60000000000000000000000000000010001033
:103D700000100000000000000000000000380000FB
:103D80000000000000000000000000000000000033
:103D900000000000001000000000000800080010F3
:103DA000001000100010002000200000000000386B
:103DB0000044004400540044004400440038000023
:103DC0000000001000300050001000100010001023
:103DD0000010000000000038004400440004000807
:103DE00000100020007C00000000003800440004A7
:103DF000001800040004004400380000000000081F
:103E00000018002800280048007C00080008000076
:103E10000000007C004000400078000400040044E2
:103E200000380000000000380044004000780044E2
:103E300000440044003800000000007C000400083A
:103E400000100010002000200020000000000038BA
:103E5000004400440038004400440044003800009E
:103E600000000038004400440044003C00040044CA
:103E700000380000000000000000001000000000FA
:103E80000000000000100000000000000000000022
:103E900000100000000000000010001000100000E2
:103EA0000000000C003000400030000C000000005A
:103EB0000000000000000000007C0000007C00000A
:103EC0000000000000000000000000600018000476
:103ED00000180060000000000000003800440004EA
:103EE0000008001000100000001000000000003862
:103EF0000044004C0054005C0040004000380000CA
:103F0000000000100028002800280028007C004441
:103F100000440000000000780044004400780044A1
:103F200000440044007800000000003800440040D5
:103F300000400040004000440038000000000070D5
:103F40000048004400440044004400480070000061
:103F50000000007C00400040007C00400040004029
:103F6000007C00000000007C004000400078004021
:103F700000400040004000000000003800440040C5
:103F80000040005C00440044003800000000004491
:103F900000440044007C004400440044004400000D
:103FA0000000003800100010001000100010001079
:103FB00000380000000000040004000400040004B5
:103FC0000004004400380000000000440048005095
:103FD000006000500048004800440000000000401D
:103FE000004000400040004000400040007C0000D5
:103FF00000000044006C006C005400440044004485
:1040000000440000000000440064006400540054B8
:10401000004C004C00440000000000380044004404
:1040200000440044004400440038000000000078D0
:10403000004400440044007800400040004000007C
:104040000000003800440044004400440044005490
:104050000038000400000078004400440044007868
:1040600000480048004400000000003800440040C0
:104070000030000800040044003800000000007C0C
:1040800000100010001000100010001000100000C0
:104090000000004400440044004400440044004444
:1040A00000380000000000440044004400280028BC
:1040B00000280010001000000000004400440054DC
:1040C00000540054006C0028002800000000004448
:1040D00000280028001000100028002800440000DC
:1040E00000000044004400280028001000100010C8
:1040F000001000000000007C000400080010001008
:1041000000200040007C000000000018001000109B
:104110000010001000100010001000100018002007
:10412000002000100010001000100008000800001F
:1041300000000030001000100010001000100010EF
:10414000001000100030001000280028004400007B
:10415000000000000000000000000000000000005F
:1041600000000000000000000000000000FE002031
:10417000001000000000000000000000000000002F
:1041800000000000000000380044003C0044004CE7
:10419000003400000000004000400058006400446B
:1041A00000440064005800000000000000000038D7
:1041B00000440040004000440038000000000004BB
:1041C00000040034004C00440044004C0034000063
:1041D00000000000000000380044007C0040004463
:1041E000003800000000000C0010007C00100010DF
:1041F000001000100010000000000000000000345B
:10420000004C00440044004C00340004007800409E
:104210000040005800640044004400440044000092
:1042200000000010000000700010001000100010CE
:1042300000100000000000100000007000100010CE
:10424000001000100010001000E000400040004886
:104250000050006000500048004400000000007062
:1042600000100010001000100010001000100000DE
:104270000000000000000078005400540054005476
:1042800000540000000000000000005800640044DA
:10429000004400440044000000000000000000381A
:1042A00000440044004400440038000000000000C6
:1042B00000000058006400440044006400580040BE
:1042C0000040000000000034004C00440044004C5A
:1042D00000340004000400000000005800640040A6
:1042E00000400040004000000000000000000038D6
:1042F00000440030000800440038000000000020A6
:10430000002000780020002000200020001800007D
:104310000000000000000044004400440044004C41
:1043200000340000000000000000004400440028A9
:1043300000280028001000000000000000000054C9
:1043400000540054006C0028002800000000000009
:104350000000004400280010001000280044000065
:104360000000000000000044004400280028001065
:1043700000100010006000000000007C0008001029
:1043800000200040007C0000000000180010001019
:104390000010002000200010001000100018001075
:1043A000001000100010001000100010001000108D
:1043B000001000300010001000100008000800106D
:1043C0000010001000300000000000000074004CDD
:1043D00000000000000000000000010202030405CC
:1043E000060708090A0B0C0D0E0F101025002D00F2
:1043F00043006C7800000000184400080000002012
:104400001800000050010008304400081800002087
:10441000100B0000700100080100000010000000F7
:10442000070A00006E3C000800127A00000000003D
:04000005080000ED02
:00000001FF
